:020000040800F2
:1000000018040020450100087B0900087309000856
:10001000770900082D080008290D000800000000DD
:100020000000000000000000000000007D0A000841
:1000300031080008000000007D090008510B00088D
:100040005F0100085F0100085F0100085F01000810
:100050005F0100085F0100085F0100085F01000800
:100060005F0100085F0100085F0100085F010008F0
:100070005F0100085F0100085F0100085F010008E0
:100080005F0100085F0100085F0100085F010008D0
:100090005F0100085F0100085F0100085F010008C0
:1000A0005F0100085F0100085F0100085F010008B0
:1000B0005F0100085F0100085F0100085F010008A0
:1000C0005F0100085F0100085F0100085F01000890
:1000D0005F0100085F0100085F0100085F01000880
:1000E0005F0100085F0100085F0100085F01000870
:1000F0005F0100085F0100085F0100085F01000860
:100100005F0100085F0100085F0100085F0100084F
:100110005F0100085F0100085F0100085F0100083F
:100120005F0100085F0100085F0100085F0100082F
:10013000DFF80CD000F006FB004800473516000839
:10014000180400200648804706480047FEE7FEE7FF
:10015000FEE7FEE7FEE7FEE7FEE7FEE7FEE7FEE777
:10016000550B0008310100082DE9FE4F804681EA59
:100170000300C00F0C46009021F0004123F0004521
:10018000B8EB0200A94105D24046214690461C46E4
:100190000B46024623F00040104304D1404621465E
:1001A00003B0BDE8F08F270DC7F30A00C3F30A516F
:1001B0000290401A0190402866DAC3F3130040F41D
:1001C000801B0098924620B10023D2EB030A63EB18
:1001D0000B0B01985946C0F14002504600F060F9FF
:1001E00006460D4650465946019A00F068F910EB54
:1001F00008006141002487EA115284EAE7731A4338
:100200003BD0009A3AB3019A012A4FEA075210DC18
:10021000001B61EB02014FF0004202EA0752CDE9F8
:100220000042001C41F5801132462B4600F09CF93B
:10023000B6E7001B61EB0201001C41F580130018BA
:100240005B412018A2F5001747EB030140EAD57087
:10025000B6196D4111E06D084FEA360645EAC075E2
:100260004FEA0752001B61EB0201001C41F58011AF
:1002700049084FEA30000019514132462B4603B07D
:10028000BDE8F04F00F063B9009801224000002360
:10029000D0EB020263EBE073009821464FEAE07472
:1002A000B8EB000061EB0401E9E783F000435BE792
:1002B00081F0004158E72DE9FE4F81EA030404F084
:1002C000004421F0004100944FF0000B23F0004364
:1002D00050EA010402D052EA030404D1002001468E
:1002E00003B0BDE8F08FC3F30A54C1F30A552C44A0
:1002F000A4F2F3340194A0FB0254C1F3130141F4BE
:100300008011C3F3130343F4801301FB024400FB89
:10031000034E840A970A44EA815447EA8357A4FBB0
:10032000076802958D0A05FB07854FEA932C04FBAD
:100330000C542705029D4FEA065847EA1637B5EBDD
:1003400008056EEB070C870E920E47EA811742EA0A
:100350008312A7FB0201B6EB0B0164EB00042B0D2B
:1003600043EA0C335E1844EB1C50DA465146E7FB77
:100370000201C5F313044FEA0B3343EA14534FEA67
:100380000432019C43EA0603A4F10C040294009C8D
:10039000CDE900B400F0E8F8A2E70EB540F2334131
:1003A00002910021CDE900110A460B4600F0DCF86D
:1003B00003B000BD00F0004230F000400AD0C10D93
:1003C00001F56071C0F3160042EA0151C20840070E
:1003D0001143704700200146704701F0004330B4DC
:1003E00021F0004150EA010206D00A0DA2F5607228
:1003F000C1F31301002A02DC30BC00207047440F17
:1004000044EAC104C100E01830BC00EBC25000F067
:1004100068B830B50B46014600202022012409E0CF
:1004200021FA02F59D4205D303FA02F5491B04FAAD
:1004300002F52844151EA2F10102F1DC30BD2DE9C0
:10044000F05F0546002092469B4688460646814658
:1004500040241BE0284641464746224600F084F9E6
:1004600053465A46C01A914110D3114618462246A7
:1004700000F016F82D1A67EB01084F4622460120BE
:10048000002100F00DF817EB00094E41201EA4F1E9
:100490000104DFDC484631462A464346BDE8F09F6A
:1004A000202A04DB203A00FA02F100207047914034
:1004B000C2F1200320FA03F3194390407047202A29
:1004C00006DBCB17203A41FA02F043EAE07306E07C
:1004D00041FA02F3D040C2F120029140084319468C
:1004E00070470029A8BF7047401C490008BF20F092
:1004F0000100704710B4B0FA80FC00FA0CF050EA2A
:10050000010404BF10BC704749B1CCF1200421FAAA
:1005100004F411FA0CF118BF012121430843A3EBA5
:100520000C01CB1D0106000A002BBEBF002010BC31
:10053000704700EBC35010440029A4BF10BC7047A3
:10054000401C490008BF20F0010010BC704710B5E6
:10055000002B08DA401C41F1000192185B411A435C
:1005600001D120F0010010BD2DE9F04D92469B46CF
:1005700011B1B1FA81F202E0B0FA80F22032904675
:10058000FFF78EFF04460F4640EA0A0041EA0B01DE
:1005900053465A46084303D120463946BDE8F08DFC
:1005A000114653EA010015D0C8F14002504600F050
:1005B000DBF805460E46504659464246FFF770FFA7
:1005C000084301D0012000E00020054346EAE07620
:1005D0002C4337430A984FEA4453A0EB08004FEAF4
:1005E000D4240A304FF0000244EA47544FEAD7259A
:1005F00002D500200146D1E7010510196941DDE966
:10060000084500196941BDE8F04DA0E72DE9F04D1E
:1006100081EA030404F0004B21F0004514464FF03A
:10062000000A23F0004150EA050220D054EA0102FA
:100630001DD0C5F30A570246C5F31303C1F31300D7
:10064000C1F30A5640F4801543F48013A7EB060863
:10065000101BD64608F2FD3873EB050002D308F1F3
:10066000010801E092185B41B8F1000F03DA0020A5
:100670000146BDE8F08D00204FF480110646844607
:100680000EE0171B73EB050705D3121B63EB050385
:1006900006434CEA010C49084FEA300092185B41CE
:1006A00050EA0107EDD152EA030012D082EA0400B9
:1006B00083EA0501084303D100224FF0004308E01C
:1006C000101BAB4102D20122002302E06FF00102B5
:1006D00053101AEB06004CEB085110EB0A0041EBEB
:1006E0000B01BDE8F04DFFF732BFC1F30A52C1F371
:1006F000130140F2FF3341F480119A4202DA0020E4
:100700000146704740F233439A42A2F2334202DC80
:10071000524200F029B8FFF7C3BE000030B50029EF
:1007200004DB4FF00044404264EB0101002B04DB8A
:100730004FF00044524264EB0303994208BF9042D9
:1007400030BD0000064C074D06E0E06840F00103B4
:1007500094E8070098471034AC42F6D3FFF7ECFC5E
:10076000E416000804170008202A04DB203A21FAC6
:1007700002F00021704721FA02F3D040C2F12002BA
:10078000914008431946704708B50121482000F000
:10079000FBF8BF20ADF8000003208DF80200042014
:1007A0008DF8030069460C4800F056F8FC20ADF8BF
:1007B00000006946094800F04FF84020ADF80000FD
:1007C00010208DF803006946034800F045F8082121
:1007D000034800F0CAF808BD00180140000C0140B1
:1007E0000010014008B508210D4800F0BEF80120B6
:1007F00000F01FF808210A4800F0B9F8052000F0C1
:1008000025F80848006800F0BF008DF80000064891
:10081000006800F0F4008DF80100BDF8000008BD8C
:100820000010014008180140080C014000BFFEE71D
:100830007047002100BF082100BF4A1ED2B211003C
:10084000FBD1421ED2B21000F5D1704700BF411E4D
:10085000C9B20800FBD170472DE9F04102460025DE
:100860000026002000230024002791F803C00CF08C
:100870000F0591F803C01CF0100F03D091F802C0CF
:100880004CEA050591F800C0BCF1000F31D01468A6
:1008900000202BE04FF0010C0CFA00F3B1F800C07F
:1008A0000CEA03069E4220D183004FF00F0C0CFA95
:1008B00003F7BC4305FA03FC4CEA040491F803C0B7
:1008C000BCF1280F06D14FF0010C0CFA00FCC2F865
:1008D00014C00AE091F803C0BCF1480F05D14FF0F5
:1008E000010C0CFA00FCC2F810C0401C0828D1D33F
:1008F0001460B1F800C0BCF1FF0F34DD5468002073
:100900002EE000F1080C4FF0010808FA0CF3B1F8E2
:1009100000C00CEA03069E4221D183004FF00F0C69
:100920000CFA03F7BC4305FA03FC4CEA040491F803
:1009300003C0BCF1280F05D100F1080C08FA0CF82F
:10094000C2F8148091F803C0BCF1480F07D100F140
:10095000080C4FF0010808FA0CF8C2F81080401C8F
:100960000828CED35460BDE8F08141617047016131
:10097000704700BFFEE700BFFEE77047704710B545
:10098000FFF702FF10BD000029B1064A9269024339
:10099000044B9A6104E0034A92698243014B9A61D5
:1009A000704700000010024030B5002100220024F2
:1009B00000232D4D6D6805F00C0121B1042905D0EF
:1009C000082923D105E0294D056022E0274D056067
:1009D0001FE0254D6D6805F47012234D6D6805F418
:1009E0008034022505EB92421CB9214D5543056028
:1009F0000BE01D4D6D6815F4003F03D01C4D5543B1
:100A0000056002E0194D5543056002E0174D056091
:100A100000BF00BF144D6D6805F0F0010909154DC8
:100A20006B5C0568DD4045600F4D6D6805F4E06165
:100A3000090A104D6B5C4568DD4085600A4D6D68A4
:100A400005F46051C90A0B4D6B5C4568DD40C5601B
:100A5000054D6D6805F44041890B074D6B5CC56819
:100A6000B5FBF3F5056130BD0010024000127A00BD
:100A700000093D000000002010000020704710B564
:100A800000F002F810BD0000002100202E4A12687C
:100A900042F480322C4B1A6000BF2B4A126802F4D9
:100AA0000030491C10B9B1F5A06FF6D1264A126882
:100AB00012F4003F01D0012000E00020012842D1C3
:100AC000224A126842F01002204B1A601A4612683D
:100AD00022F003021A601A46126842F002021A60FB
:100AE000194A5268184B5A601A4652685A601A4698
:100AF000526842F480625A601A46526822F47C12AC
:100B00005A601A46526842F4E8125A601A4612684D
:100B100042F080721A6000BF0B4A126812F0007F28
:100B2000FAD0094A526822F00302074B5A601A466B
:100B3000526842F002025A6000BF034A526802F053
:100B40000C02082AF9D17047001002400020024030
:100B50007047000010B51348006840F001001149CB
:100B6000086008464068104908400E494860084639
:100B700000680E4908400B4908600846006820F4E8
:100B8000802008600846406820F4FE0048604FF46A
:100B90001F008860FFF773FF4FF000600449086092
:100BA00010BD0000001002400000FFF8FFFFF6FE3D
:100BB00008ED00E021B1828942F40052828104E014
:100BC00082894DF6FF731A408281704700B585B067
:100BD000012144F20400FFF7D7FE4FF40070ADF896
:100BE000100003208DF8120018208DF8130004A9BE
:100BF0001348FFF731FE4FF48060ADF81000042079
:100C00008DF8130004A90E48FFF726FE4FF4E130DB
:100C100000900020ADF80400ADF80600ADF8080023
:100C20000C20ADF80A000020ADF80C00694605481C
:100C300000F00AF801210348FFF7BCFF05B000BD32
:100C400000080140003801402DE9F04786B0054614
:100C50000E460024A24600BFA1460027B08900B17D
:100C600000BF2F462C8A4CF6FF700440F0880443E6
:100C70002C82AC894EF6F3100440B08831890843C9
:100C8000718908430443AC81AC8A4FF6FF400440AD
:100C9000B0890443AC8201A8FFF786FE1F48874253
:100CA00002D1DDF810A001E0DDF80CA0A88910F455
:100CB000004F08D00AEBCA0000EB0A103168490067
:100CC000B0FBF1F807E00AEBCA0000EB0A1031684C
:100CD0008900B0FBF1F86420B8FBF0F004012009B2
:100CE000642101FB1089A88910F4004F08D032203C
:100CF00000EBC900B0FBF1F000F00700044308E08E
:100D0000322000EB09106421B0FBF1F000F00F007D
:100D100004432C8106B0BDE8F08700000038014094
:100D2000C1F308028280704700BFFEE70FB4054B95
:100D300010B503A9044A029800F0C6F810BC5DF88B
:100D400014FB0000111600081400002002E008C87F
:100D5000121F08C1002AFAD170477047002001E035
:100D600001C1121F002AFBD1704700002DE9FF5F6F
:100D7000DDE90220010DDDF838B0024310D10F98F3
:100D800001244CA2012808D0002100980F9BC0E943
:100D90000021C0E90243BDE8FF9F6FEA0B01F4E7C1
:100DA000A1F2FF3144F6105041430D140F98012871
:100DB0000ED0A5EB0B00401C4FF000043E4EDFF8B8
:100DC000FC90B0F1000AA04605DACAF1000717E06E
:100DD000CBF10000F0E7074612E0F80707D0224603
:100DE000334640464946FFF766FA80468946224622
:100DF000334610461946FFF75EFA04460E467F104A
:100E0000002FEAD1DDE90201BAF1000F42464B465C
:100E100002DAFFF750FA01E0FFF7F8FB04460E464E
:100E20000022274BFFF77AFC03D84FF0FF30014632
:100E300007E00022234B20463146FFF795F9FFF7E4
:100E400054FC102409E0002C0ADB0A220023FFF7DF
:100E5000F6FA019B30321A55641E50EA0102F2D1B3
:100E6000641C019AC4F1110314440F9A012A09D099
:100E70000122084301D15B450FDD4FF0000205F16F
:100E800001050DE0084303D1A3EB0B056D1E09E03E
:100E900000204FF0110B0F9088E701DA00226D1E41
:100EA000002A83D000980F99C0E90231C0E90045BB
:100EB00071E7000030000000000024400000F03F17
:100EC0000000F0430000E03F2DE9FF4F95B09B4646
:100ED00089460646002512E2252878D10024761C92
:100EE000F94A2746012105943378203B01FA03F0A3
:100EF000104202D00443761CF6E730782A2811D03D
:100F00006FF02F033078A0F13002092A16D8059A25
:100F100044F0020402EB820203EB42021044761C0E
:100F20000590EFE759F8042B0592002A03DA5042A6
:100F300044F40054059044F00204761C30782E28C6
:100F400016D116F8010F44F004042A280DD06FF0D2
:100F50002F023078A0F13003092B09D807EB870363
:100F600002EB4303C718761CF3E759F8047B761CA1
:100F700030786C280FD006DC4C2817D068280DD0AC
:100F80006A2814D104E0742810D07A280FD10DE01B
:100F900044F400140AE044F4801401E044F44014E2
:100FA0007278824202D1761C04F58014761C307867
:100FB00066280BD013DC582877D009DC002875D0C0
:100FC0004528F6D04628F4D047281AD19FE118E0EA
:100FD000632835D0642879D0652812D197E170282C
:100FE00073D008DC6728F1D069286FD06E280DD047
:100FF0006F2806D1B5E073282CD0752875D07828D5
:1010000074D05A46179990476D1C76E1C4F302508C
:10101000022809D003280DD0D9F8001004280DD0DB
:101020000D6009F1040968E1D9F80010EA17C1E977
:101030000052F6E7D9F800100D80F2E70D70F0E7E6
:1010400019F8041B8DF8001000208DF80100EA4605
:10105000012003E059F804AB4FF0FF3061074FF077
:10106000000102D40DE008F101018846B9420FDA0F
:101070008045F8DB1AF808100029F4D108E008F1DF
:10108000010188468142FADB1AF808100029F6D1DE
:1010900005985B46A0EB080721463846179A00F0F2
:1010A0009EFA284400EB080507E04DE02BE10DE037
:1010B0001AF8010B5A4617999047B8F10108F7D270
:1010C0005B4621463846179A14E142E00A22009214
:1010D000C4F302524FF0000A022A08D059F804CB98
:1010E000032A4FEAEC710AD00DE029E02AE009F169
:1010F000070121F00702F2E802C1914609E00FFA68
:101100008CFC4FEAEC71042A03D14FFA8CFC4FEAB5
:10111000EC71002907DA0A460021DCF1000C61EBD2
:1011200002012D2202E0220504D52B228DF8042095
:10113000012203E0E20701D02022F7E7904653E0C6
:101140000A2102E010220DE010214FF0000A009168
:101150000BE010224FF0000A44F00404082700922C
:1011600003E008224FF0000A0092C4F30252022A60
:1011700005D059F804CB0021032A08D009E009F171
:10118000070121F00702F2E802C1914605E01FFACB
:101190008CFC042A01D10CF0FF0C4FF00008220750
:1011A00022D5702827D0009B83F0100353EA0A034E
:1011B00009D15CEA010206D030228DF804208DF8B6
:1011C000050002229046009B83F0080353EA0A03BD
:1011D0000AD15CEA010201D1620705D530228DF8FF
:1011E00004204FF001087F1E582809D037A0039033
:1011F0000EA8029013E040228DF804200122E1E7BE
:1012000037A0F4E753466046009AFFF718F9844682
:101210000398825C0298A0F10100029002705CEADF
:101220000100EFD1029806A9A1EB000000F1200A0D
:10123000600702D524F4803400E00127574502DD21
:10124000A7EB0A0000E0002000EB0A0100900598DF
:101250004144A0EB01000590E00306D45B46214623
:10126000179A059800F0BBF90544002706E001A88D
:101270005A46C05D179990476D1C7F1C4745F6DBA9
:10128000E0030CD55B462146179A059800F0A7F9B4
:10129000054404E030205A46179990476D1C009988
:1012A000481E00900029F5DC08E0029802995A4691
:1012B0000078491C0291179990476D1CBAF1000102
:1012C000AAF1010AF1DC6BE1092801003031323367
:1012D0003435363738396162636465660000000072
:1012E000303132333435363738394142434445465C
:1012F0000000000000F060F9054406F101063078B6
:1013000000287FF4E9AD19B02846BDE8F08F6207E8
:1013100000D4062709F1070222F0070CFCE802239B
:10132000E14603F000485FEA080C02D00FF27C2C83
:101330000DE05FEA045C02D50FF2742C07E05FEA6F
:10134000C47C02D00FF26C2C01E0AFF2700C4FF0B5
:10135000FF3823F00043CDF850C065280CD006DCE0
:10136000452809D046281DD047283ED13EE06628B2
:1013700018D0672839D139E00021112F01DB112065
:1013800000E0781CCDE9000106A90EA8FFF7EEFCED
:10139000DDE90F010E9A03910021009207F1010A85
:1013A00004914EE04FF000400097CDE9011006A9EE
:1013B0000EA8FFF7DBFCDDE90F0203920E9B1199EB
:1013C0000022DDF80CA00093049219B907F1010185
:1013D00000EB010AB7EB0A0004D4C0F1FF3007F1BB
:1013E000010A0490AAEB0700019046E0012F00DA01
:1013F00001270021112F01DD112000E03846CDE941
:10140000000106A90EA8FFF7B1FCDDE90F010E9A55
:101410000391002104910092BA4621070CD403994C
:10142000514500DA8A46BAF1010F05DD009AAAF1AA
:101430000101515C302908D0B84202DA10F1040FE2
:1014400006DA0121CDE9011017E0AAF10101E9E76F
:10145000002805DC049901440491AAEB000102E094
:10146000411C514500DD8A460499A0EB010000F1C2
:10147000010001904FF000400290200704D4019831
:10148000504501DBCDF8048000208DF84F00029814
:101490000DF14F07B0F1004F25D02B200E90029890
:1014A0004FF0020800280CDA404202902D200E90E6
:1014B00007E00A210298FEF7ACFF3031029007F8EE
:1014C000011DB8F10001A8F10108F2DC0298002822
:1014D000EFD1791E0E980870307800F0200040F0AF
:1014E000450007F8020D12A8A0EB070000F107085D
:1014F0001498007800B1012000EB0A01019801EB7B
:10150000E07105984144A0EB0100A0F101000590B5
:10151000E00306D45B462146179A059800F05FF871
:1015200005441498007820B15A461799904705F160
:101530000105E00323D55B462146179A059800F084
:101540004EF805441BE00498002807DB039981420C
:1015500004DD04990098405C179901E01799302048
:101560005A46904704986D1C401C04900198401EF8
:10157000019004D12E205A46179990476D1CBAF15C
:101580000001AAF1010ADEDC05E017F8010B5A465A
:10159000179990476D1CB8F10001A8F10108F4DC1F
:1015A0005B462146179A0598A4E600002D0000002E
:1015B0002B000000200000002DE9F041044600252A
:1015C0001E461746880405D406E039462020B04759
:1015D00005F10105641EF8D52846BDE8F0812DE926
:1015E000F041044600251E469046C80301D5302729
:1015F00000E02027880405D506E041463846B0477C
:1016000005F10105641EF8D52846BDE8F08100000B
:1016100070B504460D46E1B20548FFF781FB00BFF7
:101620000348008810F0800FFAD0204670BD0000FB
:10163000003801409EB0FFF78DFAFFF7C7FAFFF7B9
:101640009EF93EE04FF0000A08E0FFF7CBF814A93E
:1016500021F81A000AF1010000F0FF0ABAF1150F93
:10166000F3DB4FF0000A29E014A931F81A00FEF765
:1016700094FE0646134A144BFEF71DFE0446002254
:10168000124BFEF712FE81F000418046FEF7A5FEE8
:101690004DF82A0014A830F81A100DA0FFF746FBE9
:1016A0005DF82A00FEF786FE044622460B460AA095
:1016B000FFF73CFB0AF1010000F0FF0ABAF1150F39
:1016C000D2DBBFE7F0A7C64B378903400088B340A1
:1016D00025302E32780D0A0025312E3466206D56C5
:1016E0000D0A000004170008000000201800000088
:1016F0004C0D00081C170008180000200004000012
:101700005C0D000800000000010203040102030454
:0C1710000607080902040608000000009B
:0400000508000131BD
:00000001FF
