:020000040800F2
:10000000B8040020252900082D2900082F29000800
:1000100031290008332900083529000800000000B4
:100020000000000000000000000000003729000868
:1000300039290008000000003B2900083D2900087C
:100040003F2900083F2900083F2900083F290008F0
:100050003F2900083F2900083F2900083F290008E0
:100060003F2900083F2900083F2900083F290008D0
:100070003F2900083F2900083F2900083F290008C0
:100080003F2900083F2900083F2900083F290008B0
:100090003F2900083F2900083F2900083F290008A0
:1000A0003F2900083F2900083F2900083F29000890
:1000B0003F2900083F2900083F2900083F29000880
:1000C0003F2900083F2900083F2900083F29000870
:1000D0003F2900083F2900083F2900083F29000860
:1000E0003F2900083F2900083F2900083F29000850
:1000F0003F2900083F2900083F2900083F29000840
:100100003F2900083F2900083F2900083F2900082F
:100110003F2900083F2900083F2900083F2900081F
:100120003F2900083F2900083F2900083F2900080F
:10013000DFF80CD002F0C0FF00480047450100087E
:10014000B80400208EB0182107A802F035FC4FF04B
:10015000000900200490012400F0CAFAF5A203214E
:10016000012000F0FBFDF7A20121022000F0F6FDC6
:10017000F6A20E21022000F0F1FD00F0C1FA21E20A
:10018000F44894FBF0F100FB1140F34990FBF1F0CF
:100190000790084694FBF0F100FB114042F2107109
:1001A00090FBF1F00890084694FBF0F100FB114041
:1001B0004FF47A7190FBF1F00990084694FBF0F14E
:1001C00000FB1140642190FBF1F00A90642094FB45
:1001D000F0F100FB11400A2190FBF1F00B900A2096
:1001E00094FBF0F100FB11400C9000F09CFC824667
:1001F000BAF1010F09D109F1010000F0FF09B9F1CD
:10020000070F01D14FF0010950E1BAF1020F5FD1A0
:10021000B9F1070F3BD2DFE809F03A040D161F28A9
:1002200031000C98401C0C900C98092801DD00202E
:100230000C902DE00B98401C0B900B98092801DDC9
:1002400000200B9024E00A98401C0A900A98092884
:1002500001DD00200A901BE00998401C09900998D4
:10026000092801DD0020099012E00898401C089040
:100270000898092801DD0020089009E00798401C33
:1002800007900798022801D10020079000BF00BF07
:1002900000BFB1490798484340F271220899514381
:1002A00000EB0110099901EB4102C2EBC11100EB17
:1002B000C1000A9901EBC10202EB011100EB8100C0
:1002C0000B9901EB810100EB41000C994418EDE022
:1002D000BAF1030F5FD1B9F1070F3BD2DFE809F0A4
:1002E0003A040D161F2831000C98401E0C900C98F3
:1002F000002801DA09200C902DE00B98401E0B908D
:100300000B98002801DA09200B9024E00A98401E7F
:100310000A900A98002801DA09200A901BE009983F
:10032000401E09900998002801DA0920099012E07E
:100330000898401E08900898002801DA09200890C3
:1003400009E00798401E07900798002801DA01206D
:10035000079000BF00BF00BF7F490798484340F2A5
:1003600071220899514300EB0110099901EB4102F8
:10037000C2EBC11100EBC1000A9901EBC10202EB13
:10038000011100EB81000B9901EB810100EB4100B1
:100390000C9944188AE0BAF1040F98D14FF0000983
:1003A0006D48844201DD044601E004B9012404984B
:1003B000A0427BD046F6605084420DDC204602F01D
:1003C00024FD0746654A664B02F03EFC05460E4694
:1003D0003F20644908700CE0204602F016FD0746F5
:1003E000614A624B02F030FC05460E4600205D4932
:1003F00008702A46334600205D4902F097FC074604
:1004000000225C4B02F092FC00225B4BCDE9000124
:1004100002F073FBCDE9020102F029FD5749088083
:100420000846008802F002FD2A463346CDE9000165
:100430000020534902F07AFC0746DDE9002302F070
:1004400075FCCDE9020102F012FD4E490860084634
:1004500000680A21B0FBF1F201FB1200052807D366
:1004600048480068B0FBF1F0401C4649086006E0CF
:10047000444800680A21B0FBF1F042490860414855
:100480000068C0F34F004049088000F02AFB049444
:100490003E49002000F068F93C49002000F012FAC3
:1004A000322000F0E2F8002039490860224639A1E4
:1004B00005A802F013FE05AA0721022000F04EFC59
:1004C000B9F1000F7ED0A9F1010000F0FF0B0FE0A1
:1004D000CBF1CB01C8B200F0E1FB302000F0CBFB48
:1004E000ABF1010000F0FF0BBBF1000F00D106E003
:1004F000CBF1050007A951F820000028E8D000BF83
:10050000022000F0D7F8B9F1060F5AD2DFE809F05F
:1005100059030A444B52CB2000F0C0FB5F2000F08F
:10052000AAFB4EE0CA2000F0B9FB5F2000F0A3FB5D
:1005300047E047E04D4158323632207465737421EC
:1005400000000000467265713A20000020487A20C1
:100550000000000040420F00A08601009A9999997E
:1005600099796140000000203D0AD7A3703D4440C6
:10057000882A9141E0FFEF400000F03F0800002092
:100580002A75C541040000200A000020508D573F05
:100590000C0C014025366400C92000F07FFB5F2071
:1005A00000F069FB0DE0C82000F078FB5F2000F050
:1005B00062FB06E0C72000F071FB5F2000F05BFBF0
:1005C00000BF00BFDCE5704700BF411EC9B2080094
:1005D000FBD17047002100BF082100BF4A1ED2B2E4
:1005E0001100FBD1421ED2B21000F5D1704700219C
:1005F00000BF0F2100BF4A1ED2B21100FBD1421E24
:1006000092B21000F5D1704700BF072100BF0B2246
:1006100000BF531E9BB21A00FBD14B1E9BB21900A8
:10062000F5D1431EDBB21800EFD1704700BF422165
:1006300000BF1E2200BF531EDBB21A00FBD14B1EAF
:10064000DBB21900F5D1431EDBB21800EFD17047C1
:10065000652000BF582100BF4A1E92B21100FBD195
:10066000421E92B21000F5D1704700BF772100BF43
:10067000432200BF531E9BB21A00FBD14B1E9BB2FC
:100680001900F5D1431EDBB21800EFD1704700BF4F
:1006900040F2712100BF3F2200BF531E9BB21A00DF
:1006A000FBD14B1E9BB21900F5D1431EDBB21800E3
:1006B000EED1704700BF4FF47A7100BF40F20122C3
:1006C00000BF531E9BB21A00FBD14B1E9BB21900F8
:1006D000F4D1431EDBB21800EDD1704701B502E042
:1006E0000098401E009000980028F9D108BD000035
:1006F00010B500F015FB00F003FA00F0F2F910BDA0
:1007000008B50121482001F0ABF84FF47C50ADF85A
:10071000000003208DF8020010208DF803006946C8
:10072000054800F0E1FD4FF44040ADF80000694697
:10073000024800F0D9FD08BD000C0140001801403E
:100740002DE9F041044621464FF0854002F097F92B
:1007500007464FF0864102F08FF9064602F073FB20
:10076000C5B22846BDE8F0812DE9F04106460F46A6
:1007700003250020804604463846FFF7E1FF804607
:100780004FF48041AC4800F05CFEC820FFF71CFF2E
:100790004FF40041A84800F054FEC820FFF714FFB2
:1007A0004FF47C50A5490860C820FFF70DFF4FF4B7
:1007B0000041A14800F047FEC820FFF705FF9F4811
:1007C0000838006806F0030140EA01209B49083917
:1007D0000860C820FFF7F8FE4FF40041964800F08B
:1007E00030FEC820FFF7F0FE002431E04FF47C50CB
:1007F00092490860914808380168601C41EA8020ED
:100800008E4908390860C820FFF7DEFE4FF400412A
:10081000894800F018FEC820FFF7D6FE8848006817
:1008200028406100C1F108018840844908390968FD
:100830000843824908390860C820FFF7C5FE4FF415
:1008400000417D4800F0FDFDA806050E601CC4B205
:10085000032CCBDB0325002430E04FF47C50774998
:100860000860764808380168201D41EA80207349F5
:1008700008390860C820FFF7A7FE4FF400416E4812
:1008800000F0E1FDC820FFF79FFE08EA05006100C7
:10089000C1F1080188406949083909680843674976
:1008A00008390860C820FFF78FFE4FF40041624806
:1008B00000F0C7FDA806050E601CC4B2042CCCDBFA
:1008C000BDE8F0812DE9F04106460F4603250020E2
:1008D000804604463846FFF733FF80464FF4804198
:1008E000554800F0AEFDC820FFF76EFE4FF4004102
:1008F000514800F0A6FDC820FFF766FE4FF47C507B
:100900004E4908604D480838016804F1080041EA82
:1009100080204A4908390860C820FFF755FE4FF487
:100920000041454800F08FFDC820FFF74DFE4348C9
:100930000838006806F0030140EA01203F49083901
:100940000860C820FFF740FE4FF400413A4800F02D
:1009500078FDC820FFF738FE002432E04FF47C50C9
:100960003649086035480838016804F1090041EA51
:100970008020324908390860C820FFF725FE4FF46F
:1009800000412D4800F05FFDC820FFF71DFE2C48F8
:10099000006828406100C1F10801884027490839F2
:1009A00009680843254908390860C820FFF70CFE8C
:1009B0004FF40041204800F044FDA806050E601CDD
:1009C000C4B2032CCADB0325002431E04FF47C5071
:1009D0001A49086019480838016804F10C0041EA16
:1009E0008020164908390860C820FFF7EDFD4FF454
:1009F0000041114800F027FDC820FFF7E5FD08EA97
:100A000005006100C1F1080188400C4908390968F6
:100A100008430A4908390860C820FFF7D5FD4FF49C
:100A20000041054800F00DFDA806050E601CC4B28B
:100A3000042CCBDBBDE8F08100180140140C014010
:100A40000000002008B50121052000F009FF012069
:100A5000ADF8000018208DF8030003208DF8020087
:100A60006946234800F040FC08BD00B587B001216D
:100A7000084600F002FF1F480088401E80B2ADF813
:100A800014001D480088401E80B2ADF81000002000
:100A9000ADF81600ADF8120004A94FF0804001F047
:100AA00017F86020ADF800000120ADF802001348EF
:100AB0000088ADF806000020ADF8080069464FF048
:100AC000804001F042F80821C80601F08DFC0121A8
:100AD000880701F059FC0121880701F055FB07B098
:100AE00000BD10B5FFF7AEFFFFF7BFFF10BD000060
:100AF0000008014004000020080000200A00002037
:100B000008B50121402000F0ABFE0F20ADF8000039
:100B100048208DF8030003208DF8020069462B4819
:100B200000F0E2FB08BD10B500240121274800F0C9
:100B30006EFC78B10221254800F069FC50B1042117
:100B4000224800F064FC28B10821204800F05FFC36
:100B5000002837D10A20FFF788FD01211B4800F04B
:100B600056FC38B9012400BF0121184800F04FFCA1
:100B70000028F9D00221154800F049FC38B90224B8
:100B800000BF0221114800F042FC0028F9D00421E6
:100B90000E4800F03CFC38B9032400BF04210B4888
:100BA00000F035FC0028F9D00821084800F02FFC9F
:100BB00048B9042400BF0821044800F028FC00289C
:100BC000F9D000E00024204610BD000000180140CC
:100BD00010B5FE4800684FF60F710840FB490860E9
:100BE000FB48007800F0F000F9490870F748006809
:100BF00009780843F54908600A20FFF7E5FC4FF43F
:100C00008071F44800F01DFC0A20FFF7DDFC4FF472
:100C10008071F04800F017FC0A20FFF7D5FCEB4884
:100C200000684FF60F710840E8490860EA4800780C
:100C300000F00F00E8490870084600780007000E31
:100C40000870E248006809780843E04908600A2013
:100C5000FFF7BAFC4FF48071DE4800F0F2FB0A2087
:100C6000FFF7B2FC4FF48071DA4800F0ECFB05208E
:100C7000FFF7FBFC10BD10B50446D5480470D648FC
:100C800004700121D1480C3800F0DBFB0221CF4871
:100C90000C3800F0D8FBFFF79BFF10BD10B50446E1
:100CA000CB480470CC4804700121C8480C3800F0CF
:100CB000CAFB0221C5480C3800F0C5FBFFF788FFCE
:100CC00010BD10B54020FFF7E9FF002405E0C3493F
:100CD000085DFFF7D0FF601CC4B2402CF7DB10BDED
:100CE00008B50121042000F0BBFD0121202000F007
:100CF000B7FDF320ADF8000003208DF802001020AE
:100D00008DF803006946B1480C3800F0EDFA4FF455
:100D10008070ADF800006946AE4800F0E5FA08BD05
:100D200010B50A20FFF7C6FCFFF7DAFF052404E040
:100D30002820FFF7B3FF601EC4B2002CF8DC0120AE
:100D4000FFF7ACFF0620FFF7A9FF0F20FFF7A6FF74
:100D50000C20FFF7A3FFFFF7B4FF10BD70B50646E8
:100D60000D461446012E05D105F17F01C8B2FFF7EB
:100D700095FF04E005F1BF01C8B2FFF78FFF03E064
:100D80002078FFF778FF641C20780028F8D170BD28
:100D90002DE9F84307460E46144691A000680090DE
:100DA0004FF00008012F05D106F17F01C8B2FFF70F
:100DB00075FF04E006F1BF01C8B2FFF76FFFC4B3CF
:100DC0004FF47A7094FBF0F100FB1140642190FB2A
:100DD000F1F03030C0B28DF80000642094FBF0F1E7
:100DE00000FB11400A2190FBF1F03030C0B28DF8C9
:100DF00001000A2094FBF0F100FB11403030C0B23A
:100E00008DF80200002511E01DF80500302804D0FF
:100E1000B8F1000F01D14FF00108B8F1010F03D173
:100E20001DF80500FFF727FF681CC5B2032DEBDB9B
:100E300003E0FFE73020FFF71EFFBDE8F8832DE950
:100E4000FC4107460E46144666A103C9CDE90001E0
:100E50004FF00008012F05D106F17F01C8B2FFF75E
:100E60001DFF04E006F1BF01C8B2FFF717FF002C19
:100E700051D05E4894FBF0F100FB114042F210713A
:100E800090FBF1F03030C0B28DF80000084694FBC2
:100E9000F0F100FB11404FF47A7190FBF1F030302B
:100EA000C0B28DF80100084694FBF0F100FB114040
:100EB000642190FBF1F03030C0B28DF80200642064
:100EC00094FBF0F100FB11400A2190FBF1F030306F
:100ED000C0B28DF803000A2094FBF0F100FB114032
:100EE0003030C0B28DF80400002511E01DF8050077
:100EF000302804D0B8F1000F01D14FF00108B8F14B
:100F0000010F03D11DF80500FFF7B5FE681CC5B23F
:100F1000052DEBDB02E03020FFF7ADFEBDE8FC81E4
:100F20002DE9FE4F81460E46144631A207CA8DE8D0
:100F300007004FF0000AB9F1010F05D106F17F015A
:100F4000C8B2FFF7ABFE04E006F1BF01C8B2FFF77D
:100F5000A5FE002C7ED0294A02232046002101F064
:100F6000F3FC17461946264A0023384601F0ECFCEC
:100F70003030C0B28DF800002148B4FBF0F100FB26
:100F800011402049B0FBF1F000F13000C0B28DF803
:100F900001000846B4FBF0F100FB11401A49B0FB18
:100FA000F1F000F13000C0B28DF802000846B4FB49
:100FB000F0F100FB11401549B0FBF1F000F13000F9
:100FC000C0B28DF80300084622E000000C14014076
:100FD0008B000020000801408C0000200C00002045
:100FE000202020202020202020200000A08601009A
:100FF00020202020202020202020200000E40B544E
:1010000000CA9A3B00E1F5058096980040420F0027
:10101000B4FBF0F100FB11407F49B0FBF1F000F1AF
:101020003000C0B28DF804000846B4FBF0F100FBBC
:10103000114042F21071B0FBF1F000F13000C0B28B
:101040008DF805000846B4FBF0F100FB11404FF4A9
:101050007A7100E042E0B0FBF1F000F13000C0B284
:101060008DF806000846B4FBF0F100FB11404FF08C
:101070006401B0FBF1F000F13000C0B28DF8070060
:101080000846B4FBF0F100FB11404FF00A01B0FB41
:10109000F1F000F130008DF808000846B4FBF0F1E3
:1010A00000FB114000F130008DF809004FF0000501
:1010B00011E01DF80500302804D0BAF1000F01D16D
:1010C0004FF0010ABAF1010F03D11DF80500FFF737
:1010D000D2FD681CC5B20A2DEBDB02E03020FFF721
:1010E000CAFDBDE8FE8F10B50620FFF7D7FD8020B2
:1010F000FFF7D4FD002405E04849085DFFF7BBFD7C
:10110000601CC4B20F2CF7DB10BD10B50620FFF732
:10111000C5FDC020FFF7C2FD002405E04049085D81
:10112000FFF7A9FD601CC4B20F2CF7DB10BD10B592
:101130000420FFF7B3FD8F20FFF7B0FD102409E076
:10114000611E364A505CFFF796FD0220FFF7B2FAA7
:10115000601EC4B2002CF3DC10BD10B50620FFF7F2
:101160009DFDC020FFF79AFD002408E02C49085D92
:10117000FFF781FD0220FFF79DFA601CC4B20F2C1F
:10118000F4DB10BD10B50720FFF788FD8F20FFF7B7
:1011900085FD002408E02149085DFFF76CFD05206E
:1011A000FFF788FA601CC4B20F2CF4DB10BD10B539
:1011B0000520FFF773FD8F20FFF770FD0F2408E077
:1011C0001649085DFFF757FD0520FFF773FA601E0B
:1011D000C4B2002CF4DC10BD10B50620FFF75EFD94
:1011E0008020FFF75BFD002405E00E49085DFFF756
:1011F00042FD601CC4B2102CF7DBC020FFF74EFD8F
:10120000102405E00749085DFFF735FD601CC4B2F6
:10121000202CF7DB10BD0000A08601004C00002050
:101220005C0000206B00002010B50446CC488442CE
:1012300008D10121042000F02DFB0021042000F042
:1012400029FB46E0C748844208D10121082000F06C
:1012500021FB0021082000F01DFB3AE0C248844237
:1012600008D10121102000F015FB0021102000F012
:1012700011FB2EE0BD48844208D10121202000F05E
:1012800009FB0021202000F005FB22E0B848844241
:1012900008D10121402000F0FDFA0021402000F09B
:1012A000F9FA16E0B348844208D10121802000F009
:1012B000F1FA0021802000F0EDFA0AE0AE48844205
:1012C00007D10121801500F0E5FA0021A01500F0FA
:1012D000E1FA10BD10B50121084600F0DBFA00214B
:1012E000012000F0D7FA10BD2DE9F041024600259B
:1012F0000026002000230024002791F803C00CF0F2
:101300000F0591F803C00CF0100CBCF1000F03D0D6
:1013100091F802C04CEA050591F800C0BCF1000F3D
:1013200031D0146800202BE04FF0010C0CFA00F3D0
:10133000B1F800C00CEA03069E4220D183004FF0B2
:101340000F0C0CFA03F7BC4305FA03FC4CEA040447
:1013500091F803C0BCF1280F06D14FF0010C0CFA34
:1013600000FCC2F814C00AE091F803C0BCF1480FB9
:1013700005D14FF0010C0CFA00FCC2F810C0401C63
:101380000828D1D31460B1F800C0BCF1FF0F34DDE0
:10139000546800202EE000F1080C4FF0010808FA14
:1013A0000CF3B1F800C00CEA03069E4221D1830081
:1013B0004FF00F0C0CFA03F7BC4305FA03FC4CEAA0
:1013C000040491F803C0BCF1280F05D100F1080C0A
:1013D00008FA0CF8C2F8148091F803C0BCF1480F69
:1013E00007D100F1080C4FF0010808FA0CF8C2F818
:1013F0001080401C0828CED35460BDE8F0814FF621
:10140000FF710180022181700421C1707047024682
:10141000002093680B400BB1012000E000207047D2
:101420000146886880B2704702460020D3680B40AE
:101430000BB1012000E0002070470146C86880B26F
:10144000704701617047416170470AB1016100E076
:1014500041617047C16070474FF480320A43826136
:101460008161826182698269704702460020434B34
:1014700018684FF68073184040EA021008433F4B4B
:10148000186070473E49C8617047F0B50A460023AE
:1014900000240021002500F00046B6F1004F02D1E3
:1014A000364EF16901E0354E7168C0F3034583B2F1
:1014B00000F44016B6F5401F08D121F070612F4EA0
:1014C000766826F070662D4F7E6012E000F480167C
:1014D000B6F5801F06D1032606FA05F4A14341F0B4
:1014E000706106E0460D360103FA06F6B14341F09D
:1014F000706122B1460D360103FA06F6314300F061
:101500000046B6F1004F02D11C4EF16101E01B4EC6
:101510007160F0BD30B500228B071C0F0F2303FA5A
:1015200004F2164B08338C1053F824309343134CB9
:1015300008348D1044F8253023468C1053F824309D
:101540008C07240F00FA04F423430C4C08348D104C
:1015500044F8253030BD0A49DC310860704700008E
:1015600000080140000C014000100140001401403F
:1015700000180140001C0140002001400000014013
:1015800000002042DF48006840F00100DD490860AB
:1015900008464068DC490840DA4948600846006867
:1015A000DA490840D74908600846006820F48020DE
:1015B00008600846406820F4FE0048604FF41F00B1
:1015C00088607047CF49096821F48031CD4A1160A5
:1015D0001146096821F480211160B0F5803F03D0E5
:1015E000B0F5802F0ED106E0C649096841F480317C
:1015F000C44A116007E0C349096841F4A021C14A07
:10160000116000E000BF00BF704710B50146002226
:10161000002300204A11012A02D1BA4C236806E0B7
:10162000022A02D1B74C236A01E0B64C636A01F08A
:101630001F02012494401C400CB1012000E0002056
:1016400010BD38B5002000900024002500BF3120D7
:10165000FFF7DBFF05460098401C00900098B0F5AE
:10166000A06F01D0002DF2D03120FFF7CEFF08B1DE
:10167000012400E00024204638BD01460020A14A94
:10168000106820F0F80040EAC10010607047A049DF
:1016900008607047024600209A4B586820F47C107E
:1016A00042EA01031843974B58607047984908660F
:1016B000704701460020934A506820F00300084319
:1016C000506070478F48406800F00C00704701463A
:1016D00000208C4A506820F0F000084350607047AA
:1016E00001460020874A506820F4E06008435060BB
:1016F000704701460020834A506820F4605040EA59
:10170000C1005060704729B17E4A527A02437D4B36
:101710005A7204E07B4A527A82437A4B5A7270477B
:101720007B49D8310860704701460020754A5068EF
:1017300020F440400843506070470021714A203235
:101740001170704A82F82010012802D004280AD1B2
:1017500004E001216B4A2032117005E00521694A3D
:101760002032117000E000BF00BF70476949086077
:1017700070476449096A0143624A116270476549CA
:1017800044390860704730B500210022002400234E
:101790005C4D6D6805F00C0121B1042905D00829C4
:1017A00023D105E05C4D056022E05B4D05601FE044
:1017B000544D6D6805F47012524D6D6805F4803417
:1017C000022505EB92421CB9544D554305600BE0D0
:1017D0004C4D6D6805F400351DB1504D5543056005
:1017E00002E04D4D5543056002E04B4D056000BFE2
:1017F00000BF444D6D6805F0F0010909484D6B5C70
:101800000568DD4045603F4D6D6805F4E061090AFB
:10181000434D6B5C4568DD4085603A4D6D6805F46D
:101820006051C90A3E4D6B5C4568DD40C560354D71
:101830006D6805F44041890B3A4D6B5CC568B5FB9A
:10184000F3F5056130BD29B12E4A526902432D4B93
:101850005A6104E02B4A526982432A4B5A6170470D
:1018600029B1284A92690243264B9A6104E0254A2D
:1018700092698243234B9A61704729B1214AD26908
:101880000243204BDA6104E01E4AD26982431D4BB9
:10189000DA61704729B11B4AD2680243194BDA60FA
:1018A00004E0184AD2688243164BDA60704729B1C7
:1018B000144A12690243134B1A6104E0114A126977
:1018C0008243104B1A6170471249403908607047D3
:1018D0000F49C86470470B49C87170470948406A8E
:1018E00040F0807007494862704701460020054A71
:1018F00092680A400AB1012000E0002070470149C7
:1019000088727047001002400000FFF8FFFFF6FEEB
:10191000000042428004424200127A0000093D0069
:101920008D0000209D00002010B50446FE48844232
:1019300008D10121C014FFF7ADFF0021E014FFF72B
:10194000A9FFC4E0B4F1804F08D101210846FFF798
:10195000AEFF00210120FFF7AAFFB8E0F348844260
:1019600008D101210220FFF7A2FF00210220FFF78A
:101970009EFFACE0EE48844208D101210420FFF72D
:1019800096FF00210420FFF792FFA0E0E94884427F
:1019900008D101210820FFF78AFF00210820FFF766
:1019A00086FF94E0E448844208D101211020FFF72B
:1019B0007EFF00211020FFF77AFF88E0DF48844295
:1019C00008D101212020FFF772FF00212020FFF71E
:1019D0006EFF7CE0DA48844208D101214014FFF711
:1019E00059FF00216014FFF755FF70E0D54884428D
:1019F00009D10121C804FFF74DFF00214FF4002059
:101A0000FFF748FF63E0D048844209D1012108056F
:101A1000FFF740FF00214FF48010FFF73BFF56E037
:101A2000CA48844209D101214805FFF733FF00214C
:101A30004FF40010FFF72EFF49E0C548844208D15B
:101A400001214020FFF733FF00214020FFF72FFF47
:101A50003DE0C048844208D101218020FFF727FFE4
:101A600000218020FFF723FF31E0BB48844208D1EA
:101A700001218015FFF71BFF0021A015FFF717FFBD
:101A800025E0B648844209D101210804FFF702FF8E
:101A900000214FF48030FFF7FDFE18E0B04884428B
:101AA00009D101214804FFF7F5FE00214FF4003071
:101AB000FFF7F0FE0BE0AB48844208D10121880417
:101AC000FFF7E8FE00214FF48020FFF7E3FE10BD92
:101AD00000220288944B98420ED0994B98420BD02A
:101AE000B0F1804F08D0914B984205D0904B98426E
:101AF00002D0904B984204D14FF68F731A404B8816
:101B00001A438D4B984207D08C4B984204D04FF625
:101B1000FF431A40CB881A4302808B8883850B8849
:101B20000385814B98420BD0854B984208D08B4B54
:101B3000984205D08A4B984202D08A4B984201D1F4
:101B40000B7A038601238382704770B5002400223C
:101B50000023058C4FF6FE7635400584028C838881
:101B6000048B4FF68F752C40B51E2C400D882C43EE
:101B7000751E2A400D892A434D882A436A4DA84282
:101B80000BD06F4DA84208D0744DA84205D0744DBB
:101B9000A84202D0734DA84213D14FF6F7752A40E0
:101BA0004D892A434FF6FB752A408D882A434FF60C
:101BB000FF652B404FF6FF552B408D892B43CD8978
:101BC0002B4383800483CD888586028470BD70B5E5
:101BD000002400220023058C4FF6EF763540058463
:101BE000028C8388048B48F6FF752C404FF6FF4526
:101BF0002C400D884FF6FF7606EA05252C434FF65C
:101C0000DF752A400D8906EA05152A434D8806EA44
:101C100005152A43444DA84202D0494DA8421DD182
:101C20004FF67F752A404D894FF6FF7606EA051577
:101C30002A434FF6BF752A408D8806EA05152A43C8
:101C40004FF6FF352B404FF2FF752B408D8906EA8A
:101C500085052B43CD8906EA85052B4383800483C4
:101C6000CD880587028470BD70B500240022002352
:101C7000058C4FF6FF6635400584028C8388848B83
:101C80004FF68F752C404FF6FC752C400D882C4379
:101C90004FF6FF552A400D894FF6FF7606EA0525D7
:101CA0002A434D8806EA05252A431F4DA84202D043
:101CB000234DA8421DD14FF2FF752A404D894FF6A2
:101CC000FF7606EA05252A434FF6FF352A408D8820
:101CD00006EA05252A434EF6FF752B404DF6FF75A3
:101CE0002B408D8906EA05152B43CD8906EA05159B
:101CF0002B4383808483CD888587028470BD70B533
:101D0000002200230024058C4EF6FF763540058422
:101D1000038C8488828B48F6FF752A404FF6FF4576
:101D20002A400D8820E00000002C01400004004003
:101D300000080040000C004000100040001400406B
:101D400000340140004C014000500140005401406B
:101D500000180040001C00400020004000400140EE
:101D600000440140004801404FF6FF7606EA052591
:101D70002A434DF6FF752B400D8906EA05352B43A6
:101D80004D8806EA05352B43FA4DA84202D0FA4D9C
:101D9000A84208D14BF6FF752C408D894FF6FF768F
:101DA00006EA85152C4384808283CD88A0F84050B4
:101DB000038470BD828B4FF2FF331A408283828B83
:101DC0004FF6FF7303EA01231A4382837047F0B58D
:101DD0000C461546002200210026078C4EF6FF7C9B
:101DE00007EA0C070784828B018C4FF6FF7707EA1E
:101DF000043640F6FF473A404FF6FF7707EA0527DB
:101E00003A434FF6FF7707EA03373A43D94FB842D0
:101E10000ED0D94FB8420BD0B0F1804F08D0D74F79
:101E2000B84205D0D64FB84202D0D64FB84206D1FC
:101E30004DF6FF77394046F48057394305E047F6C1
:101E4000FF57394044F48057394382830184F0BD01
:101E5000828B4FF6F3731A408283828B0A4382830C
:101E60007047F0B50C461546002200210026078C6D
:101E70004FF6FF6C07EA0C070784828B018C4FF644
:101E8000FF7707EA04264FF60C773A404FF6FF77C4
:101E900007EA03172F433A43B64FB8420ED0B64F66
:101EA000B8420BD0B0F1804F08D0B44FB84205D043
:101EB000B34FB84202D0B34FB84206D14FF6FF57E6
:101EC000394046F48077394305E04FF2FF573940F7
:101ED00044F48077394382830184F0BD028B4FF252
:101EE000FF331A400283028B4FF6FF7303EA01238C
:101EF0001A4302837047F0B50C46154600220021B4
:101F00000026078C4FF6EF7C07EA0C070784028B4C
:101F1000018C4FF6FF7707EA041640F6FF473A4078
:101F20004FF6FF7707EA03373A434FF6FF7707EAA2
:101F300005273A438F4FB8420ED08F4FB8420BD08F
:101F4000B0F1804F08D08D4FB84205D08C4FB842C9
:101F500002D08C4FB84206D14FF6DF77394046F0B9
:101F60001007394305E04FF65F77394044F010071A
:101F7000394302830184F0BD028B4FF6F3731A409C
:101F80000283028B0A4302837047F0B50C46154664
:101F900000220021068C4FF6FE773E400684028B1D
:101FA000018C4FF60C7632407E1C06EA03162E4357
:101FB0003243704EB0420ED06F4EB0420BD0B0F1F3
:101FC000804F08D06D4EB04205D06D4EB04202D069
:101FD0006C4EB04206D14FF6FD76314044F001061A
:101FE000314305E04FF6F576314044F001063143C8
:101FF00002830184F0BD70B505460C465D488542FC
:102000000ED05D4885420BD0B5F1804F08D05B48BB
:10201000854205D05A48854202D05A48854200D1AF
:1020200000E000BF208850B92389A2886188284633
:10203000FFF7ABFFE1882846FFF79EFF25E02088E9
:1020400004280AD12389A28861882846FFF753FF14
:10205000E1882846FFF742FF17E0208808280AD1C8
:102060002389A28861882846FFF7FBFEE18828467D
:10207000FFF7EEFE09E02389A28861882846FFF772
:10208000A6FEE1882846FFF795FE70BD2DE9F041D8
:1020900005460C4600260127608808B9022600E0A4
:1020A0000026A088012801D1022700E0012720880E
:1020B000A0B92389A28861882846FFF766FFE188D6
:1020C0002846FFF759FF23893A4631462846FFF74D
:1020D00012FFE1882846FFF701FF13E02389A28859
:1020E00061882846FFF707FFE1882846FFF7F6FEDC
:1020F00023893A4631462846FFF747FFE1882846BC
:10210000FFF73AFFBDE8F0810A884B881A438B88B5
:102110001A43CB881A430B891A434B891A438B897C
:102120001A43A0F8442070474FF6FF7181800021C8
:102130000180C1804180017270470021018041808F
:102140008180C180018141818181C18170470021ED
:1021500001804180012181800021C180018170477F
:102160000021018041808180C18001814181818184
:1021700070470000002C0140003401400004004082
:1021800000080040000C004021B1028842F001022A
:10219000028004E002884FF6FE731A400280704706
:1021A00031B1B0F8442042F40042A0F8442005E0E8
:1021B000B0F84420C2F30E02A0F8442070471AB1D0
:1021C00083890B43838102E083898B43838170473A
:1021D0008182704741EA0203A0F8483070471AB183
:1021E00083890B43838102E083898B43838170471A
:1021F00001894FF6F8721140018170470A460021AB
:1022000001894FF68F73194011430181704730B532
:1022100004460D4629462046FFF7F0FF208940F08E
:102220000700208130BD2DE9F04104460D461646D9
:102230001F46602D06D13B46012231462046FFF75E
:102240005AFE05E03B46012231462046FFF79DFE3F
:1022500029462046FFF7D2FF208940F00700208161
:10226000BDE8F08130B50C4600210189C9B24FF6B6
:10227000FF7505EA0325154325432943018130BD38
:102280002DE9F04105460E46174698460024434680
:102290003A4631462846FFF7E5FF2C894FF6F8709D
:1022A000044044F007044FF68F70044044F070047B
:1022B0002C81BDE8F081F0B504460D4616461F4658
:1022C0003B46324629462046FFF7CCFF208940F4A2
:1022D00080402081F0BD0185828270470A4600213E
:1022E00001884FF68F731940114301807047F0B594
:1022F0000C4615461E460021002200230189028B50
:10230000038C4FF6F877394021434FF6FC473A40AB
:1023100040F201173A434FF6DD773B404FF6FF7727
:1023200007EA06172F433B43018102830384F0BD74
:102330000A460021018B4FF68F7319401143018328
:1023400070470A460021018B48F6FF7319404FF68B
:10235000FF7303EA02231943018370470A460021F1
:10236000818B4FF68F7319401143818370470A4662
:102370000021818B48F6FF7319404FF6FF7303EA83
:10238000022319438183704721B1028842F0800201
:10239000028004E002884FF67F731A400280704783
:1023A00021B1828842F00402828004E082884FF6E4
:1023B000FB731A408280704721B1828842F0080284
:1023C000828004E082884FF6F7731A40828070475B
:1023D00021B1828842F00102828004E082884FF6B7
:1023E000FE731A40828070470A460021018B4FF627
:1023F000F77319401143018370470A460021018B8E
:102400004FF2FF7319404FF6FF7303EA022319439B
:10241000018370470A460021818B4FF6F7731940FC
:102420001143818370470A460021818B4FF2FF736D
:1024300019404FF6FF7303EA022319438183704763
:102440000A460021018B4FF6FB73194011430183AB
:1024500070470A460021018B4FF6FF3319404FF6B3
:10246000FF7303EA02231943018370470A460021E0
:10247000818B4FF6FB7319401143818370470A46E5
:102480000021818B4FF6FF3319404FF6FF7303EAAB
:1024900002231943818370470A460021018B4FF6BE
:1024A0007F7319401143018370470A460021018B55
:1024B000C1F30E014FF6FF7303EA022319430183B0
:1024C00070470A460021818B4FF67F7319401143F4
:1024D000818370470A460021818BC1F30E014FF6BC
:1024E000FF7303EA02231943818370470A460021E0
:1024F000018C4FF6FD7319401143018470470A4661
:102500000021018C4FF6F773194011430184704785
:102510000A460021018C4FF6DF7319404FF6FF7316
:1025200003EA02131943018470470A460021018C13
:102530004FF67F7319404FF6FF7303EA02131943F6
:10254000018470470A460021018C4FF6FF53194061
:102550004FF6FF7303EA02231943018470470A46CA
:102560000021018C4FF2FF7319404FF6FF7303EA0D
:1025700002231943018470470A460021018C4DF65D
:10258000FF7319404FF6FF7303EA023319430184C6
:10259000704730B5002301248C40A3B2048C9C43C7
:1025A0000484048C02FA01F5ADB22C43048430BDDE
:1025B00030B5002304248C40A3B2048C9C430484D3
:1025C000048C02FA01F5ADB22C43048430BD70B521
:1025D0000346002000241846183001258D40ACB277
:1025E0001D8CA5431D8409B1082909D100EB6100A8
:1025F000056825F0700505600568154305600EE067
:102600000D1FC5F34E052844056825F4E045056017
:1026100005684FF6FF7606EA02263543056070BD71
:1026200021B1028842F00202028004E002884FF6E3
:10263000FD731A400280704721B1028842F0040203
:10264000028004E002884FF6FB731A400280704754
:1026500021B1828842F08002828004E082884FF6B5
:102660007F731A408280704702884FF6F7731A40D2
:10267000028002880A430280704782884FF68F7377
:102680001A40828082880A438280704702894FF60E
:10269000F8731A40028102890A4302817047028955
:1026A0004FF67F731A40028102890A430281704704
:1026B00081847047818570478186704701877047A4
:1026C00081877047A0F84010704702884FF6FF439B
:1026D0001A40028002880A43028070470146888EB1
:1026E00070470146088F70470146888F7047014642
:1026F000B1F8400070470146888C70470146088D4C
:10270000704702460020138A0B400BB1012000E005
:1027100000207047CA430282704730B5024600204D
:1027200000230024158A05EA0103958905EA0104BE
:1027300013B10CB1012000E0002030BDCA43028279
:10274000704700000CB50020019000906C480068B4
:1027500040F480306A49086000BF6948006800F4AE
:10276000003000900198401C0190009818B9019821
:10277000B0F5A06FF1D16248006800F4003010B1EC
:102780000120009001E0002000900098012843D132
:102790005C48006840F010005A490860084600682C
:1027A00020F0030008600846006840F0020008605E
:1027B00053484068524948600846406848600846A7
:1027C000406840F4806048600846406820F47C100F
:1027D00048600846406840F4E810486008460068D1
:1027E00040F08070086000BF4548006800F000704D
:1027F0000028F9D04248406820F003004049486072
:102800000846406840F00200486000BF3C4840680D
:1028100000F00C000828F9D10CBD10B5FFF792FFAD
:1028200010BD10B53648006840F00100344908601A
:102830000846406834490840314948600846006805
:10284000324908402E4908600846006820F480207C
:1028500008600846406820F4FE0048604FF41F00FE
:102860008860FFF7DAFF4FF000602949086010BD6B
:1028700010B5002100200022214B5B6803F00C0101
:1028800021B1042906D0082928D107E0214B224C88
:10289000236027E01F4B204C236023E0184B5B682C
:1028A00003F47010164B5B6803F48032022303EBD1
:1028B000904022B9194B4343174C23600DE0104B55
:1028C0005B6803F4003323B1144B4343124C236081
:1028D00003E0104B4343104C236003E00D4B0E4CC0
:1028E000236000BF00BF064B5B68C3F303130C4CAF
:1028F000E15C094B1B68CB40074C236010BD000016
:1029000000100240002002400000FFF8FFFFF6FE2A
:1029100008ED00E000127A00A400002000093D004C
:10292000A80000200648804706480047FEE7FEE76B
:10293000FEE7FEE7FEE7FEE7FEE7FEE7FEE7FEE76F
:1029400023280008310100082DE9F0410024061B6E
:10295000254671F1000605DA01240027D0EB0700B7
:1029600067EB0101161E73F1000605DA0027D2EBB2
:102970000702012567EB030300F0A8FA86460E461E
:1029800017469C46AC4204D00025D0EB050E65EB03
:10299000010624B10020D2EB000760EB030C704667
:1029A00031463A466346BDE8F081D2B201E000F814
:1029B000012B491EFBD270470022F6E710B51346E3
:1029C0000A4604461946FFF7F0FF204610BDF0B452
:1029D00080EA0102D40F4200B2EB410F02D202465C
:1029E000084611464A0042D0C30DDDB2C1F3C752BA
:1029F000AD1A202D35DAC1F3160141F4000204B1FD
:102A00005242C5F1200602FA06F12A411044B3EB06
:102A1000D05F23D0C4B1012DA0EBC35009DCF0BCC2
:102A20004FF0004202EAC352DBB200F5000000F0B2
:102A3000B8BA400000F1807000EBC350A0F1807084
:102A400040EAD170490009E0490841EAC071A0EBB1
:102A5000C35000F50000400800EBC350F0BC00F08C
:102A600097BA6142012202EB4101001BF6E7F0BC7C
:102A7000704781F00041AAE780F00040A7E730B43A
:102A800080EA010202F0004530F0004221F00040EF
:102A900013D090B1C30DD40DC2F31601C0F31600CC
:102AA000E41A41F4000140F400027D34914201D364
:102AB000641C00E04900002C02DA30BC00207047A2
:102AC0004FF400000023914201D3891A03434008C8
:102AD0004FEA4101F7D151B1914202D14FF000418B
:102AE00005E002D24FF0010101E06FF0010103EBBC
:102AF000C450284430BC00F04BBA2DE9FE4F80464C
:102B000081EA0300C00F0C46009021F0004123F041
:102B10000045B8EB0200A94105D240462146904647
:102B20001C460B46024623F00040104347D0270DB9
:102B3000C7F30A00C3F30A510290401A01904028DB
:102B40006BDAC3F3130040F4801B0098924620B167
:102B50000023D2EB030A63EB0B0B01985946C0F13B
:102B60004002504600F0E3F906460D4650465946ED
:102B7000019A00F0FBF910EB08006141002487EA9C
:102B8000115284EAE7731A4340D0009A62B3019A63
:102B9000012A4FEA075215DC001B61EB02014FF0DE
:102BA000004202EA0752CDE90042001C41F58011C3
:102BB00032462B4600F032FA03B0BDE8F08F4046B3
:102BC0002146F9E7001B61EB0201001C41F580136F
:102BD00000185B412018A2F5001747EB030140EAFB
:102BE000D570B6196D4111E06D084FEA360645EA19
:102BF000C0754FEA0752001B61EB0201001C41F552
:102C0000801149084FEA30000019514132462B46E5
:102C100003B0BDE8F04F00F0F2B900980122400087
:102C20000023D0EB020263EBE073009821464FEAE9
:102C3000E074B8EB000061EB0401E9E783F00043C6
:102C40005BE781F0004158E72DE9FE4F81EA03047C
:102C500004F0004421F0004100944FF0000B23F0F9
:102C6000004350EA01045ED052EA03045BD0C3F390
:102C70000A54C1F30A552C44A4F2F3340194A0FB86
:102C80000254C1F3130141F48011C3F3130343F45D
:102C9000801301FB024400FB034E840A970A44EAB6
:102CA000815447EA8357A4FB076802958D0A05FB08
:102CB00007854FEA932C04FB0C542705029D4FEA2D
:102CC000065847EA1637B5EB08056EEB070C870E7A
:102CD000920E47EA811742EA8312A7FB0201B6EB84
:102CE0000B0164EB00042B0D43EA0C335E1844EB3C
:102CF0001C50DA465146E7FB0201C5F313044FEAC4
:102D00000B3343EA14534FEA0432019C43EA0603AF
:102D1000A4F10C040294009CCDE900B400F07EF90B
:102D200003B0BDE8F08F00200146F9E72DE9F04D32
:102D300081EA030404F0004B21F0004514464FF0F3
:102D4000000A23F0004150EA050220D054EA0102B3
:102D50001DD0C5F30A570246C5F31303C1F3130090
:102D6000C1F30A5640F4801543F48013A7EB06081C
:102D7000101BD64608F2FD3873EB050002D308F1AC
:102D8000010801E092185B41B8F1000F03DA00205E
:102D90000146BDE8F08D00204FF4801106468446C0
:102DA0000EE0171B73EB050705D3121B63EB05033E
:102DB00006434CEA010C49084FEA300092185B4187
:102DC00050EA0107EDD152EA030012D082EA040072
:102DD00083EA0501084305D0101BAB4106D201224E
:102DE000002306E000224FF0004302E06FF00102F2
:102DF00053101AEB06004CEB085110EB0A0041EBA4
:102E00000B01BDE8F04D00F0FAB80EB5C10F80EA35
:102E1000E0700844CA07002140F233438DE80E00F9
:102E20000A460B4600F0FAF803B000BD0EB540F2BA
:102E3000334102910021CDE900110A460B4600F012
:102E4000EDF803B000BD20F00040C10DC0F3160046
:102E500040F400007F2901DA00207047962903DC46
:102E6000C1F19601C8407047963988407047C1F358
:102E70000A5210B5C1F3130140F2FF3341F480113F
:102E80009A4201DA002010BD40F233439A42A2F286
:102E9000334203DC524200F059F810BD904010BD9F
:102EA00030B50B46014600202022012409E021FA1A
:102EB00002F59D4205D303FA02F5491B04FA02F517
:102EC0002844151EA2F10102F1DC30BD2DE9F05FAE
:102ED0000546002092469B46884606468146402489
:102EE0001BE0284641464746224600F02FF853464D
:102EF0005A46C01A914110D311461846224600F096
:102F000016F82D1A67EB01084F46224601200021D2
:102F100000F00DF817EB00094E41201EA4F101044A
:102F2000DFDC484631462A464346BDE8F09F202A6A
:102F300004DB203A00FA02F1002070479140C2F110
:102F4000200320FA03F3194390407047202A04DB42
:102F5000203A21FA02F00021704721FA02F3D04012
:102F6000C2F120029140084319467047202A06DB2F
:102F7000CB17203A41FA02F043EAE07306E041FA47
:102F800002F3D040C2F12002914008431946704735
:102F90000029A8BF7047401C490008BF20F001006D
:102FA000704710B4B0FA80FC00FA0CF050EA01044B
:102FB00004BF10BC704749B1CCF1200421FA04F4DD
:102FC00011FA0CF118BF012121430843A3EB0C01B6
:102FD000CB1D4FEA00614FEA102042BF002010BC19
:102FE000704700EBC35010440029A4BF10BC7047C9
:102FF000401C490008BF20F0010010BC704710B50C
:10300000141E73F1000408DA401C41F1000192180B
:103010005B411A4301D120F0010010BD2DE9F04DB4
:1030200092469B4611B1B1FA81F202E0B0FA80F209
:1030300020329046FFF77BFF04460F4640EA0A0025
:1030400041EA0B0153465A46084313D0114653EA4E
:10305000010019D0C8F140025046FFF777FF05463E
:103060000E46504659464246FFF761FF084305D0D9
:10307000012004E020463946BDE8F08D00200543DC
:1030800046EAE0762C4337430A986305E40AA0EB4E
:1030900008000022FD0A44EA47540A3002D5002005
:1030A0000146E9E7010510196941DDE90845001904
:1030B0006941BDE8F04DA2E7064C074D06E0E06827
:1030C00040F0010394E8070098471034AC42F6D36F
:1030D000FDF732F870340008903400080FB4084B44
:1030E00010B504A902AA039800F01CF8044602A92E
:1030F000002000F0B8F9204610BC5DF814FB000079
:103100006734000802E008C8121F08C1002AFAD17B
:1031100070477047002001E001C1121F002AFBD157
:10312000704700002DE9FF4F8BB08846054600260A
:1031300006E025280BD0DDE90D1290476D1C761CAA
:1031400028780028F5D10FB03046BDE8F08F002474
:10315000A146A2460122AE4900E0044315F8013F12
:10316000203B02FA03F00842F7D128782A2810D031
:103170006FF02F022878A0F13001092915D809EB4A
:10318000890102EB410144F0020400EB01096D1CCE
:10319000F0E758F8041B5FEA010903D544F4005432
:1031A000C9F1000944F002046D1C28782E2817D1BB
:1031B00015F8010F44F004042A280ED06FF02F02F6
:1031C0002878A0F1300109290AD80AEB8A0102EB1C
:1031D000410100EB010A6D1CF2E758F804AB6D1CCD
:1031E00028786C280FD006DC4C2817D068280DD022
:1031F0006A2814D104E0742810D07A280FD10DE089
:1032000044F400140AE044F4801401E044F440144F
:103210006978814202D104F580146D1C6D1C2878F8
:10322000692865D006DC00288DD0632827D0642863
:1032300006D15DE06E2808D073282AD0752877D093
:10324000DDE90D129047761CE0E0C4F3025002283D
:1032500009D003280DD0D8F8001004280DD00E6036
:1032600008F10408D2E0D8F80010F217C1E90062B2
:10327000F6E7D8F800100E80F2E70E70F0E718F8C5
:10328000041B8DF8001000208DF80100EB46012092
:1032900003E058F804BB4FF0FF3061074FF0000720
:1032A00001D40AE07F1C57450DDA8742FADB1BF890
:1032B00007100029F6D106E07F1C8742FCDB1BF8D3
:1032C00007100029F8D1DDE90D23A9EB070081469D
:1032D000214600F0B1F83044C61904E0DDE90D12D2
:1032E0001BF8010B90477F1EF8D22146484688E024
:1032F00058F8040BC4F302514FF00A0B032900D114
:1033000000B2042900D140B2002802DA40422D2147
:1033100002E0210505D52B218DF82410012104E0C0
:1033200006E0E10710D02021F6E708AF089113E08E
:1033300058F8040BC4F302514FF00A0B032900D1D3
:1033400080B2042900D1C0B20021EEE75946FFF750
:10335000A7FD303107F8011D0028F7D1ADEB0700BC
:1033600000F1200B600702D524F4803401E04FF017
:10337000010ADA4502DDAAEB0B0000E000208246DC
:1033800000EB0B0108980144A9EB01000A90E0034F
:1033900006D4DDE90D2321460A9800F04DF80644D5
:1033A0004FF0000908E009A911F80900DDE90D1244
:1033B000904709F10109761C08998945F3DBE00380
:1033C0000CD5DDE90D2321460A9800F035F80644B6
:1033D00004E0DDE90D1230209047761CBAF10001BF
:1033E000AAF1010AF5DC05E0DDE90D1217F8010B81
:1033F0009047761CBBF10001ABF1010BF4DC0A989D
:103400002146DDE90D2300F005F806446D1C97E622
:10341000092801002DE9F041044600251E46174603
:10342000880404D405E039462020B0476D1C641E92
:10343000F9D52846BDE8F0812DE9F0410446002584
:103440001E469046C80301D5302700E02027880497
:1034500004D505E041463846B0476D1C641EF9D5D9
:103460002846BDE8F0810A68531C0B601070704755
:103470009034000800000020B8000000043100086B
:1034800048350008B800002000040000143100088E
:10349000000000000000000000000000080F120FF4
:1034A0000A1F02020F090F090F0911001F11111F36
:1034B00011111F00110A041F041F04000E001F0A2F
:1034C0000A0A130018180708080807000F0F0F0A48
:1034D0000F12071F00000E00001F000057656C63ED
:1034E0006F6D6520746F20757365212054656C3A8B
:1034F00031333931323334353637384D44442D3158
:103500002020033335382E3030042032303134005F
:10351000320130370220543D3135050000000000F3
:10352000000102030401020304060708090204065D
:103530000800000000A24A04000000000000000093
:0835400001020304060708095B
:0400000508000131BD
:00000001FF
