:100AD700E4F525F52475238075223F75295075287F
:100AE7008D75275775263FFF12047FE4F525F524FA
:100AF70075238075223F75295075288D7527577581
:100B0700263FFF1206387F647E00120B61E4F580F2
:020B170080FE5E
:100B4000AB07AA06A905A8047FEE7E1A7DB27C42F7
:100B50001200FEE4FBFA79D078C112000A1201D922
:010B60002272
:100B1900AB07AA06A905A804E4FFFE7D807C421262
:100B290000FEA804A905AA06AB07E4FFFEFD7C4365
:060B39001200061201D9B2
:010B3F002293
:02047F008F21CB
:10048100E4F52AF52BF52CF52DF52EF52FAF25AE3C
:1004910024AD23AC22120B408F2EAF29AE28AD27FD
:1004A100AC26120B198F2FD297D2907F647E001247
:1004B1000B61C280C281C282C283C2907F647E000E
:1004C100120B61E521139284E521A2E192857F64FB
:1004D1007E00120B61D2907F647E00120B61752A3F
:0104E1000119
:1004E200E4F530F531AC2C1201A58F398E388D37F9
:1004F2008C367F007E007D007C401209261201D9D5
:100502008F31E52A139280E52AA2E19281A2E2923A
:1005120082C2837F647E00120B61C2907F647E0080
:10052200120B61E531552E24FF9284052CAC2CE48C
:100532001201A58F398E388D378C367F007E007D73
:10054200007C401209261201D98F30E530552E2445
:10055200FF92857F647E00120B61D2907F647E00E1
:05056200120B61052CE5
:0F056700052AE52AC3940450030204E2752B040D
:10057600E4F530F531AC2D1201A58F398E388D3763
:100586008C367F007E007D007C401209261201D940
:100596008F31E52B139280E52BA2E19281A2E292A4
:1005A60082C2837F647E00120B61C2907F647E00EC
:1005B600120B61E531552F24FF9284052DAC2DE4F5
:1005C6001201A58F398E388D378C367F007E007DDF
:1005D600007C401209261201D98F30E530552F24B0
:1005E600FF92857F647E00120B61D2907F647E004D
:0505F600120B61052D50
:1005FB00052BE52BC394075003020576D280D281DD
:10060B00D282C2837F647E00120B61C2907F647EB4
:10061B0000120B61E52FA2E692847F647E00120B21
:0C062B0061D2907F647E00120B61C297C8
:0106370022A0
:020638008F2110
:10063A00E4F52AF52BF52CF52DF52EF52FAF25AE81
:10064A0024AD23AC22120B408F2EAF29AE28AD2742
:10065A00AC26120B198F2FD297D2907F647E00128C
:10066A000B61C280C281C282D283C2907F647E0043
:10067A00120B61E521139284E521A2E192857F6440
:10068A007E00120B61D2907F647E00120B61752A84
:01069A00015E
:10069B00E4F530F531AC2C1201A58F398E388D373E
:1006AB008C367F007E007D007C401209261201D91A
:1006BB008F31E52A139280E52AA2E19281A2E29280
:1006CB0082D2837F647E00120B61C2907F647E00B6
:1006DB00120B61E531552E24FF9284052CAC2CE4D2
:1006EB001201A58F398E388D378C367F007E007DB9
:1006FB00007C401209261201D98F30E530552E248B
:10070B00FF92857F647E00120B61D2907F647E0026
:05071B00120B61052C2A
:0F072000052AE52AC39404500302069B752B0497
:10072F00E4F530F531AC2D1201A58F398E388D37A8
:10073F008C367F007E007D007C401209261201D985
:10074F008F31E52B139280E52BA2E19281A2E292E9
:10075F0082D2837F647E00120B61C2907F647E0021
:10076F00120B61E531552F24FF9284052DAC2DE43A
:10077F001201A58F398E388D378C367F007E007D24
:10078F00007C401209261201D98F30E530552F24F5
:10079F00FF92857F647E00120B61D2907F647E0092
:0507AF00120B61052D95
:1007B400052BE52BC39407500302072FD280D28167
:1007C400D282D2837F647E00120B61C2907F647EEA
:1007D40000120B61E52FA2E692847F647E00120B67
:0C07E40061D2907F647E00120B61C2970E
:0107F00022E6
:100B6100D3EF9400EE940040147D6E7C00ED1D7077
:0D0B7100011CED4C70F7EF1F70E61E80E3D5
:010B7E002254
:10000300020245E86480F8E933E83360110460F0E4
:10001300ED33EC337009E8FCE9FDEAFEEBFF220463
:1000230060DED3EB9FEA9EE99DE8C2E78CF0C2F75E
:1000330095F0400CE8CCF8E9CDF9EACEFAEBCFFB2A
:1000430012021085D0F05804700320D5B3E8047071
:10005300075002B2D502024F92D5EC0460F7E4CC0C
:10006300C0E0C398F8603B94186008400DD0E0FBF3
:10007300020227E4FBFAC9FC8028E830E406E4C95D
:10008300FBE4CAFCE830E305E4C9CACBFCE8540747
:100093006010F8C3E913F9EA13FAEB13FBEC13FC52
:1000A300D8F130F52FC3E49CFCEF9BFFEE9AFEEDF5
:1000B30099FDD0E0FBEF4E4D4C701222DB030202A0
:1000C3004CEC2CFCEF33FFEE33FEED33FDED30E76C
:1000D300EB020227EF2BFFEE3AFEED39FDD0E0FBFA
:1000E30050130BBB000302024FED13FDEE13FEEFA3
:0800F30013FFEC13FC020227CD
:1000FB0002024FEC5D046005E859047003020245EF
:10010B00120210580460F6EC4860F2EC7004FDFE2D
:10011B00FF22C860DB2481C85009C39860025006D7
:10012B0002024C9850CAF582E9294B4A7005AB8202
:10013B0002023B75F0007C1A7880C3EF9BEE9AEDC0
:10014B0099400DC3EF9BFFEE9AFEED99FDE842F04F
:10015B00DC23ACF0D0E0FFD0E0FED0E0FDAB8220A2
:10016B00E7101BEB60BAEC2CFCEF33FFEE33FEED2C
:10017B0033FD020227E803F830E705C0F075F00005
:10018B00EF2FFFEE33FEED33FD40B830E7C280AA10
:10019B0075F020800E75F010800575F0087D007EDF
:1001AB00007F003392D530D503120451EC3340104D
:1001BB00EF33FFEE33FEED33FDEC33FCD5F0ED22E8
:0E01CB00E5F0247EA2D513CC92E7CDCEFF2224
:1001D900EDD2E7CD33EC3392D524814006E4FFFE1E
:1001E900FDFC22FCE4CFCECDCC24E0501174FF807D
:1001F900EDC3CC13CCCD13CDCE13CECF13CF04701A
:07020900F030D5DE020451C4
:100926008F358E348D338C32E4FFFE7D807C3FAB79
:1009360035AA34A933A83212037A7009AF35AE341A
:10094600AD33AC3222AF35AE34AD33AC3212025ACF
:10095600FBAF39AE38AD37AC3612025AFFBF0108CD
:10096600E4FFFE7D807C3F22EF64046022EB64049A
:10097600601DBB0127E4FFFEFDFCAB39AA38A93791
:10098600A83612037A60084006E4FFFEFDFC2274D6
:10099600FFF539F538F537F536020A34E4F53AF558
:1009A6003BFFFEFDFCAB35AA34A933A83212037A0D
:1009B600504BAF39AE38AD37AC361201D98E3A8FBF
:1009C6003BAC3AAD3BEC1201A0C8ECC8C9EDC9CAB4
:1009D600EECACBEFCBAF39AE38AD37AC3612000628
:1009E600E4FBFAF9F812037A70A5AF35AE34AD33ED
:1009F600AC321203F38F358E348D338C32AF35AE75
:100A060034AD33AC32120825AB39AA38A937A8362B
:100A1600120274120A758F398E388D378C36E53B83
:100A260030E00B1203F38F398E388D378C36AF39A1
:070A3600AE38AD37AC3622EB
:10021000E9D2E7C933E833F892D5EDD2E7CD33EC34
:0702200033FC5002B2D522AD
:10022700EC30E7100FBF000C0EBE00080DBD000438
:100237000BEB6014A2D5EB13FCED92E7FD2274FFE4
:10024700FCFDFEFF22E480F8A2D574FF13FC7D803D
:03025700E480EF51
:10025A00ED33EC33601004700FED547F70057402B7
:0A026A0092E0227404220422E42230
:10027400EC4D6011E8497017ED33EC3304600DE484
:10028400FCFFFEFD22E933E8330470F80202451254
:10029400021058046009E4CC248150062850090255
:1002A400024F28400302024CC0E0EB4A7044B9807C
:1002B40006D0E0FB02023BEF4E701CBD8008EBFF52
:1002C400EAFEE9FD80EBE98DF0A4FEE5F002035DB2
:1002D400E9CDF9EAFEEBFFEF89F0A4FCE5F0CE8965
:1002E400F0A42EFFE435F0CD89F0A42DFEE435F022
:1002F4008067EF4E7005BD80D780C3EF8BF0A4AC50
:10030400F0EE8BF0A42CFCE435F0F8EF8AF0A42C8A
:10031400E5F038FCE433CB8DF0A42CFCE5F03BF89D
:10032400EE8AF0A42CFCE5F038F8E433CF89F0A48D
:100334002CFCE5F038CF3400CE89F0A42FFFE5F093
:100344003EFEE433C98DF0A42EFEE5F039CD8AF0EB
:10035400A42FFFE5F03EFEE43DFD33D0E0FB500763
:100364000BBB000F02024FEC2CFCEF33FFEE33FE0D
:06037400ED33FD0202273B
:10037A0074F8CC6480CCC86480C8F58204604FC32A
:10038A00EB9FF5F0EA9E42F0E99D42F0E89C45F0C9
:10039A00603C501DE5825FFFE582D313CB5BCBF453
:1003AA002B5582FB50280ABA002409B9002008807C
:1003BA001DE5825BFBE582D313CF5FCFF4C3132F16
:1003CA005582FF50090EBE00050DBD00010CC3EB9E
:1003DA009FF5F0EA9E42F0E99D42F0E89C45F06004
:0903EA0007CC4820E701B3EC2226
:1003F300ED33EC33600A047003BD8004ECB2E7FC18
:0104030022D6
:100A3D0033DA929E35B16011377FE5FE3921848915
:100A4D003AAEC3FF3C1D955B3D6358473E75FDF0C7
:100A5D003F3172183F800000C2D502024F0202459D
:100A6D00BD80FA50F302024CED33EC330460F17BA0
:100A7D003B7AAA79B8783F120274ED33EC3392D5F4
:100A8D00247B5011A2D570DB500BED448024045013
:100A9D0004A2D580CEEFFBEEFAEDF9ECF81201D9F8
:100AAD00EFF582F404FC1201A512000AC082900A2F
:100ABD003D7409120413ED33CC33D0F092D525F0EB
:0A0ACD00A2D57001C313CC13FD2263
:1007F1003E9248DA3ECCCCCD3F2AAAAB4000000065
:100801003F8000003F9837F03FB504F33FD744FCE9
:100811003E3172173EB172173F0515913EDE5BD92D
:10082100D2008002C200EDD2E7F8CD33EC33047080
:100831000BBD800592D502024F02024540FBD31445
:1008410060F2F5F07C3FEE7A00C39496C8948B4039
:10085100230AC89469C8941A401A0AC89468C894AB
:100861001F40110AC8945AC89425400805F07A001F
:10087100CDC2E7CDC0F08C3C8D3D8E3E8F3FEA234B
:1008810023C0E02401F582E43408F58312046F12D9
:10089100000AECC0E0EDC0E0EEC0E0EFC0E0120401
:1008A1005FA83CA93DAA3EAB3F120006D0E0FBD0B9
:1008B100E0FAD0E0F9D0E0B2E7F81200FE8C3C8D0E
:1008C1003D8E3E8F3F9007F17403120404A83CA9AA
:1008D1003DAA3EAB3F120274D0E0600F240DF582B9
:1008E100E43408F58312046F12000A8C3C8D3D8EAE
:1008F1003E8F3FD0E0C3947FFDE49400FC1201A041
:100901007B187A727931783F120274A83CA93DAA0A
:100911003EAB3F12000A30000B7BD97A5B79DE785F
:050921003E12027422E9
:10040400C0E0EFFBEEFAEDF9ECF8120274D0E0F57F
:10041400F0EFFBEEFAEDF9ECF812045FA3A3A3A34B
:10042400E8C0E0E9C0E0EAC0E0EBC0E0C0F01202DE
:100434007412046FA3A3A3A312000AD0F0D0E0FBAC
:0D044400D0E0FAD0E0F9D0E0F8D5F0D422F5
:03000000020B7F71
:0C0B7F00787FE4F6D8FD75813F020AD7AC
:0E045100C3E49FFFE49EFEE49DFDE49CFC22BC
:10045F00E493FC740193FD740293FE740393FF22E3
:10046F00E493F8740193F9740293FA740393FB22E3
:00000001FF
