:020000040800F2
:1000000090540020450100084D0100084F010008F0
:1000100051010008530100085501000800000000CC
:100020000000000000000000000000005701000870
:1000300059010008000000005B0100085D01000894
:100040005F0100085F0100085F0100085F01000810
:100050005F0100085F0100085F0100085F01000800
:100060005F0100085F0100085F0100085F010008F0
:100070005F0100085F0100085F0100085F010008E0
:100080005F0100085F0100085F0100085F010008D0
:100090005F0100085F0100085F0100085F010008C0
:1000A0005F0100085F0100085F0100085F010008B0
:1000B0005F0100085F0100085F0100085F010008A0
:1000C0005F0100085F0100085F0100085F01000890
:1000D0005F0100085F0100085F0100085F01000880
:1000E0005F0100085F0100085F0100085F01000870
:1000F0005F0100085F0100085F0100085F01000860
:100100005F0100085F0100085F0100085F0100084F
:100110005F0100085F0100085F0100085F0100083F
:100120005F0100085F0100085F0100085F0100082F
:10013000DFF80CD000F01EF900480047CD1400088D
:10014000905400200648804706480047FEE7FEE737
:10015000FEE7FEE7FEE7FEE7FEE7FEE7FEE7FEE777
:10016000F9130008310100082DE9FE4F81EA03046C
:1001700004F0004421F0004100944FF0000B23F004
:10018000004350EA01045ED052EA03045BD0C3F39B
:100190000A54C1F30A552C44A4F2F3340194A0FB91
:1001A0000254C1F3130141F48011C3F3130343F468
:1001B000801301FB024400FB034E840A970A44EAC1
:1001C000815447EA8357A4FB076802958D0A05FB13
:1001D00007854FEA932C04FB0C542705029D4FEA38
:1001E000065847EA1637B5EB08056EEB070C870E85
:1001F000920E47EA811742EA8312A7FB0201B6EB8F
:100200000B0164EB00042B0D43EA0C335E1844EB46
:100210001C50DA465146E7FB0201C5F313044FEACE
:100220000B3343EA14534FEA0432019C43EA0603BA
:10023000A4F10C040294009CCDE900B400F04BF84A
:1002400003B0BDE8F08F00200146F9E70EB540F29B
:10025000334102910021CDE900110A460B4600F01E
:100260003AF803B000BDC1F30A5210B5C1F313014F
:1002700040F2FF3341F480119A4201DA002010BDB0
:1002800040F233439A42A2F2334203DC524200F07E
:1002900003F810BD904010BD202A04DB203A21FA5B
:1002A00002F00021704721FA02F3D040C2F120028F
:1002B000914008431946704710B5141E73F10004AD
:1002C00008DA401C41F1000192185B411A4301D148
:1002D00020F0010010BD2DE9F04D92469B4611B172
:1002E000B1FA81F202E0B0FA80F22032904600F0DA
:1002F00053F804460F4640EA0A0041EA0B01534610
:100300005A46084313D0114653EA010019D0C8F1E8
:1003100040025046FFF7C0FF05460E46504659467C
:10032000424600F039F8084305D0012004E0204699
:100330003946BDE8F08D0020054346EAE0762C43BF
:1003400037430A986305E40AA0EB08000022FD0A7F
:1003500044EA47540A3002D500200146E9E7010586
:1003600010196941DDE9084500196941BDE8F04D02
:10037000A2E70000064C074D06E0E06840F00103EC
:1003800094E8070098471034AC42F6D3FFF7D4FE48
:10039000608D0008808D0008202A04DB203A00FAD6
:1003A00002F1002070479140C2F1200320FA03F3CC
:1003B00019439040704770B58D1810F8014B14F038
:1003C000030201D110F8012B231106D110F8013BD3
:1003D00003E010F8016B01F8016B521EF9D1ABB1CB
:1003E00010F8012B04F00C048A1A0C2C03D0A2EB99
:1003F00084129B1C08E010F8014BA2EB0422F8E7E2
:1004000012F8014B01F8014B5B1EF9D5A942D4D378
:10041000002070BD10B54FF40041284800F0B0FA3C
:100420004FF40041254800F0A9FA4FF480412348D9
:1004300000F0A4FA022001F00FF8002404E02049A3
:10044000085D01F009F8641C042CF8DB4FF48041CE
:100450001A4800F095FA0A2000F024F94FF4804180
:10046000164800F08BFA032000F0F6FF002404E0A9
:100470001449085D00F0F0FF641C042CF8DB4FF415
:1004800080410E4800F07CFA0A2000F00BF94FF48E
:1004900000610A4800F072FA0A2000F003F94FF4F4
:1004A0000061064800F06CFA0A2000F0FBF84FF4F7
:1004B0000061024800F062FA10BD0000000C01402B
:1004C000080000200C0000201CB527A00068019047
:1004D00026A0006800904FF48041254800F04EFAB5
:1004E000002000F0B9FF002404E001A9085D00F03D
:1004F000B3FF641C042CF8DB4FF480411C4800F06F
:100500003FFA0A2000F0CEF84FF48041184800F07E
:1005100035FA012000F0A0FF002404E01DF80400DB
:1005200000F09AFF641C042CF8DB4FF48041104863
:1005300000F026FA0A2000F0B5F84FF400610C48EC
:1005400000F01CFA0A2000F0ADF84FF400610848F2
:1005500000F016FA0A2000F0A5F84FF400610448F4
:1005600000F00CFA1CBD0000004000000140082013
:10057000000C01402DE9F04F85B0074688469146B2
:100580009A464046FFF762FE374A384BCDE90001F4
:10059000FFF7EAFDCDE90201FFF765FE054650468B
:1005A000FFF754FE324A334BCDE90001FFF7DCFD83
:1005B000CDE90201FFF757FE0490CB46082F15D274
:1005C000DFE807F00406080A0C0E10120E240EE0F5
:1005D0000F240CE010240AE0112408E0122406E0A5
:1005E000132404E0142402E0152400E000BF00BF3F
:1005F0002149CD71280A8871280C4871280E08718C
:100600000498C8700498000A887081F801B04FEA15
:100610001B2008704FF48041184800F0AFF92046C5
:1006200000F01AFF002604E01349885D00F014FF73
:10063000761C082EF8DB4FF48041104800F0A0F93A
:100640000A2000F02FF84FF400610C4800F098F9F0
:100650000A2000F027F84FF40061084800F08EF9F6
:1006600005B0BDE8F08F000095D626E80B2E1140AE
:10067000012FC1166CC1664000000020000C014033
:1006800000BF772100BF432200BF531E9BB21A0058
:10069000FBD14B1E9BB21900F5D1431EDBB21800F3
:1006A000EFD1704700BF411EC9B20800FBD17047AF
:1006B00051B18200A2F1C042126842F001038200EF
:1006C000A2F1C042136009E08200A2F1C0421268A8
:1006D000034B1A408300A3F1C0431A607047000027
:1006E000FEFF0F00D0E901121143C26811430269F5
:1006F00011434269114382691143C2691143026A7D
:100700001143426A1143826A1143C26A1143026B68
:10071000114302689200A2F1C04211608168082969
:100720000BD101688900A1F1C041096841F0400284
:1007300001688900A1F1C0410A60416B0968426B00
:10074000526841EA0211426B926841EA0221426B0F
:10075000928941EA0241426B128A41EA0251426B9C
:10076000127D41EA0261426B926911430268521C98
:100770009200A2F1C0421160C16AB1F5804F1BD155
:10078000816B0968826B526841EA0211826B926840
:1007900041EA0221826B128A41EA0251826B127D88
:1007A00041EA0261826B9269114302689200A2F1F0
:1007B000C042C2F8041107E06FF07042016889007E
:1007C000A1F1C041C1F8042170472DE9F041024672
:1007D00000250026002000230024002791F803C0F4
:1007E0000CF00F0591F803C00CF0100CBCF1000FD9
:1007F00003D091F802C04CEA050591F800C0BCF1A5
:10080000000F31D0146800202BE04FF0010C0CFADF
:1008100000F3B1F800C00CEA03069E4220D1830029
:100820004FF00F0C0CFA03F7BC4305FA03FC4CEA3B
:10083000040491F803C0BCF1280F06D14FF0010C5D
:100840000CFA00FCC2F814C00AE091F803C0BCF135
:10085000480F05D14FF0010C0CFA00FCC2F810C093
:10086000401C0828D1D31460B1F800C0BCF1FF0FC0
:1008700034DD546800202EE000F1080C4FF0010830
:1008800008FA0CF3B1F800C00CEA03069E4221D12D
:1008900083004FF00F0C0CFA03F7BC4305FA03FC7E
:1008A0004CEA040491F803C0BCF1280F05D100F113
:1008B000080C08FA0CF8C2F8148091F803C0BCF1D7
:1008C000480F07D100F1080C4FF0010808FA0CF8A6
:1008D000C2F81080401C0828CED35460BDE8F081D7
:1008E00008B50121082000F003FD0121042000F0DB
:1008F000FFFC0121402000F0FBFC0121102000F052
:10090000F7FC4FF47F40ADF8000010208DF8030095
:1009100003208DF8020069461548FFF756FFC020F6
:10092000ADF8000010208DF8030003208DF80200C0
:1009300069461048FFF749FF3F20ADF8000010203E
:100940008DF8030003208DF8020069460948FFF77F
:100950003CFF43F6FF70ADF8000010208DF8030057
:1009600003208DF8020069460348FFF72EFF08BDFB
:10097000000C014000080140001001404161704737
:100980000161704708B50121402000F0B1FC0F2043
:10099000ADF8000048208DF8030003208DF8020018
:1009A00069460248FFF711FF08BD0000001801402A
:1009B00008B50121602000F09BFC4CF6B370ADF847
:1009C000000003208DF8020018208DF8030069460E
:1009D0001248FFF7FAFE4FF68070ADF800000320D2
:1009E0008DF8020018208DF8030069460C48FFF7C7
:1009F000ECFE4FF44050ADF8000003208DF80200EB
:100A000010208DF8030069460448FFF7DEFE4FF41E
:100A100000510248FFF7B4FF08BD00000014014078
:100A20000018014051490871032826D14FF4A071E4
:100A30004E4A1180F02151801146098948F25252E4
:100A4000914209D12C21494A51812A2191812B219E
:100A5000D1816021D18088E04449098945F208426A
:100A60009142F8D12221414A5181202191812121B5
:100A7000D18141F20801D18077E0042826D14FF4DA
:100A8000A0713A4A1180F02151801146098948F23B
:100A90005252914209D12C21344A51812A2191810B
:100AA0002B21D181A021D1805FE03049098945F215
:100AB0000842914259D122212C4A51812021918111
:100AC0002121D18141F23801D1804EE0012826D187
:100AD000F021264A11804FF4A071518011460989F6
:100AE00048F25252914209D12C21204A51812A21A7
:100AF00091812B21D181C021D18036E01B49098908
:100B000045F20842914230D12221184A51812021D8
:100B100091812121D1814FF48151D18025E0F021B3
:100B2000124A11804FF4A07151801146098948F290
:100B30005252914209D12C210C4A51812A21918192
:100B40002B21D1810021D1800FE00849098945F28C
:100B50000842914209D12221044A518120219181E8
:100B60002121D18141F21001D180704780500020B5
:100B700000B597B00121080200F0AAFB0121084648
:100B800000F0B6FB022001900020029005200390A7
:100B900000200490059006904FF0805007900020B0
:100BA0000890099008200A9010200B9000200C90CB
:100BB0000E900F9010904FF48050119000201290E2
:100BC0001390149001A81590169008A8FFF78AFDBD
:100BD00001210020FFF76CFD17B000BD10B5FFF735
:100BE000E7FEFFF7C5FF0A20FFF74AFD4FF48051EB
:100BF000FE48FFF7C3FE0A20FFF742FD4FF4805185
:100C0000FA48FFF7BDFE0A20FFF73AFD042000F086
:100C100035FA00F02DFAF649088100F029FAF44976
:100C20000881084600894FF6FF7101EA0020F0496B
:100C3000088100F01DFAEE4909890843EC49088152
:100C40000846008948F25251884204D0002000F042
:100C500015FAE7490881E648008948F2525188426E
:100C60007ED1112000F01EFB7820FFF709FD362011
:100C700000F018FB002000F00FFB3A2000F012FB00
:100C8000052000F009FBB22000F00CFB0C2000F066
:100C900003FB0C2000F000FB002000F0FDFA3320E5
:100CA00000F0FAFA332000F0F7FAB72000F0FAFA71
:100CB000352000F0F1FABB2000F0F4FA282000F013
:100CC000EBFAC02000F0EEFA2C2000F0E5FAC2208A
:100CD00000F0E8FA012000F0DFFAC32000F0E2FAA9
:100CE0000B2000F0D9FAC42000F0DCFA202000F03C
:100CF000D3FAC62000F0D6FA0F2000F0CDFAD020AB
:100D000000F0D0FAA42000F0C7FAA12000F0C4FA45
:100D1000E02000F0C7FAD02000F0BEFA012000F079
:100D2000BBFA082000F0B8FA0F2000F0B5FA112045
:100D300000F0B2FA2A2000F0AFFA362000F0ACFA48
:100D4000552000F0A9FA442000F0A6FA3A2000F05D
:100D5000A3FA0B2000F0A0FA062000F09DFA00E0B4
:100D60004AE0112000F098FA202000F095FAE120E6
:100D700000F098FAD02000F08FFA022000F08CFAF0
:100D8000072000F089FA0A2000F086FA0B2000F014
:100D900083FA182000F080FA342000F07DFA432016
:100DA00000F07AFA4A2000F077FA2B2000F074FA6B
:100DB0001B2000F071FA1C2000F06EFA222000F0D7
:100DC0006BFA1F2000F068FA292000F06BFA2C2043
:100DD00000F068FA0320FFF725FE362000F062FAE3
:100DE0008349C88800F058FA814803884288002166
:100DF000084600F07FF928E17D48008945F2084166
:100E00008842F8D14FF48071012000F051FA4FF47C
:100E1000E061022000F04CFA41F23001032000F0C2
:100E200047FA0021042000F043FA40F20221082092
:100E300000F03EFA0021092000F03AFA00210A20D1
:100E400000F036FA00210C2000F032FA00210D20CB
:100E500000F02EFA00210F2000F02AFA00211020C5
:100E600000F026FA0021112000F022FA00211220C1
:100E700000F01EFA0021132000F01AFAC820FFF734
:100E8000FFFB0721112000F013FA3220FFF7F8FBD7
:100E900041F2B021102000F00BFA3220FFF7F0FBF6
:100EA00040F2BD11122000F003FA3220FFF7E8FBF8
:100EB0004FF4A051132000F0FBF90E21292000F07F
:100EC000F7F93220FFF7DCFB0021202000F0F0F9D9
:100ED00040F23F11212000F0EBF940F60D313020B7
:100EE00000F0E6F941F62311312000F0E1F941F676
:100EF0002641322000F0DCF942F21C61332000F080
:100F0000D7F942F21941342000F0D2F940F60B51E2
:100F1000352000F0CDF941F20601362000F0C8F985
:100F20004FF4C261372000F0C3F940F20671382057
:100F300000F0BEF94FF44171392000F0B9F940F6E4
:100F400005613A2000F0B4F940F601613B2000F061
:100F5000AFF94FF487713C2000F0AAF940F20E512E
:100F60003D2000F0A5F940F203413E2000F0A0F939
:100F700040F207613F2000F09BF90021502000F073
:100F800097F9EF21512000F093F90021522000F051
:100F90008FF940F23F11532000F08AF94FF42741B6
:100FA000602000F085F90121612000F081F9002125
:100FB0006A2000F07DF90021802000F079F90021FD
:100FC000812000F075F90021822000F071F90021E4
:100FD000832000F06DF90021842000F069F90021E0
:100FE000852000F065F91021902003E000140140F5
:100FF0008050002000F05CF90021922000F058F9A8
:101000000321932000F054F94FF48871952000F0EB
:101010004FF90021972000F04BF90021982000F0B3
:1010200047F90320FFF7FEFC0D48C188032000F0BC
:101030003FF94FF48971072000F03AF90848038816
:1010400042880021084600F055F80649064800F09D
:1010500019F94FF400510548FFF790FC10BD00004E
:10106000805000206850002054500020001401409F
:1010700001480088704700000000026001460248F5
:101080000180801C00887047FEFF016010B5034698
:101090000C461748008948F25251884215D114492C
:1010A0008989C8B200F0FEF8181200F0F5F8D8B23D
:1010B00000F0F2F80E49C989C8B200F0F3F8201226
:1010C00000F0EAF8E0B200F0E7F80948008945F2DC
:1010D000084188420BD106498989C8B2194600F0F7
:1010E000E7F80349C989C8B2214600F0E1F810BD0C
:1010F000805000202DE9FC5F04460D46904699463D
:101100000026B2460027B3460020019000905C48BC
:10111000008948F25251884234D1264604EB090036
:10112000401E1FFA80FA2F4605EB0800401E1FFAEA
:1011300080FB0196009752498989C8B200F0B2F845
:10114000301200F0A9F8F0B200F0A6F84FEA2A2019
:1011500000F0A2F80AF0FF0000F09EF84849C989A3
:10116000C8B200F09FF8381200F096F8F8B200F01C
:1011700093F84FEA2B2000F08FF80BF0FF0000F0FF
:101180008BF877E03E48008945F20841884271D1EA
:101190003B48007903281CD139484088401BA0EB0C
:1011A000080086B236484088401B401E1FFA80FA6D
:1011B00033480088001BA0EB090087B23048008844
:1011C000001B401E1FFA80FBCDF804A0CDF800B034
:1011D00040E02B48007904280ED12E4605EB08008C
:1011E000401E1FFA80FA274604EB0900401E1FFA32
:1011F00080FB019600972DE021480079012814D149
:101200001F480088001BA0EB090086B21C4800881C
:10121000001B401E1FFA80FA2F4605EB08001FFA3C
:1012200080FBCDF804A0009714E0264604EB0900EB
:10123000401E1FFA80FA12484088401BA0EB0800AD
:1012400087B20F484088401B401E1FFA80FB019662
:10125000CDF800B03146502000F02AF85146512018
:1012600000F026F83946522000F022F85946532063
:1012700000F01EF8DDE90010FFF708FFBDE8FC9F55
:1012800080500020024A1060024A1160704700003E
:1012900074500020785000200149088070470000F9
:1012A000000002600149088070470000FEFF0160F5
:1012B000024A1080921C118070470000FEFF0160FE
:1012C00010B5FFF70DFBFFF75DFBFFF787FC10BDC7
:1012D00029B1064A52690243044B5A6104E0034AA9
:1012E00052698243014B5A6170470000001002406E
:1012F00029B1064A92690243044B9A6104E0034A09
:1013000092698243014B9A617047000000100240CD
:1013100010B500F001F810BD0CB500200190009050
:101320003348006840F480303149086000BF3048DD
:10133000006800F4003000900198401C0190009873
:1013400018B90198B0F5A06FF1D12948006800F4F0
:10135000003010B10120009001E0002000900098C2
:10136000012843D12348006840F01000214908605B
:101370000846006820F0030008600846006840F056
:10138000020008601A4840681949486008464068E9
:1013900048600846406840F48060486008464068FD
:1013A00020F47C1048600846406840F4E81048602B
:1013B0000846006840F08070086000BF0C48006874
:1013C00000F000700028F9D00948406820F00300C0
:1013D000074948600846406840F00200486000BF86
:1013E0000348406800F00C000828F9D10CBD00004B
:1013F000001002400020024010B51348006840F081
:1014000001001149086008464068104908400E492B
:101410004860084600680E4908400B4908600846C5
:10142000006820F4802008600846406820F4FE0030
:1014300048604FF41F008860FFF76AFF4FF00060BC
:101440000449086010BD0000001002400000FFF8D1
:10145000FFFFF6FE08ED00E070B506468025A90105
:101460001148FFF78BFA00241AE006EA050028B9B4
:101470004FF480510C48FFF781FA04E04FF480519B
:101480000948FFF77DFA4FF400510748FFF778FA53
:101490006D104FF400510448FFF770FA601CC4B29D
:1014A000082CE2DB70BD0000000C014002E008C81F
:1014B000121F08C1002AFAD170477047002001E0CE
:1014C00001C1121F002AFBD170470000FFF7F8FE90
:1014D000FEF7A0FFFEF7F8FF06E0002343F6FF72D9
:1014E00002491846FFF746F8F7E7000040420F00B0
:1014F000000000000000000020202020002000004C
:1015000050500000000000002850F850F850A00093
:101510002030603010602000202018601010000083
:1015200000382060507800002020200000000000DB
:1015300010202020202010004020202020204000CB
:101540002070205000000000002020F82020000023
:1015500000000000102020000000007000000000CB
:1015600000000000002000001020202040408000EB
:1015700020505050502000006020202020F8000013
:1015800020502020407000002050102010600000EB
:10159000103050781038000070406010502000006B
:1015A000304060505060000070501020202000003B
:1015B000205020505020000030505030106000006B
:1015C000000020000020000000001000102000009B
:1015D000001020C02010000000700070000000000B
:1015E0000040201820400000205010200020000063
:1015F00030484858484038006020507088D8000073
:10160000F048704848F00000705040404030000002
:10161000F048484848F00000F848604048F80000AA
:10162000F848604040E000007040405850300000F2
:10163000E848784848E8000070202020207000002A
:101640003810105050200000D850607050D8000062
:10165000E040404048F80000D8D8D8A888D800001A
:10166000D868685858E800003048484848300000BA
:10167000F048487040E000003048484848301800C2
:10168000F048487048E8000070502010507000008A
:10169000F8A8202020700000D848484848300000B2
:1016A000D888485050300000D888A8A8A85000001A
:1016B000D850202050D80000D8885020207000003A
:1016C000784810204878000030202020202030006A
:1016D000804040202020100060202020202060003A
:1016E000202050000000000000000000000000F872
:1016F0002010000000000000000030107078000092
:10170000C040704848F00000000070404070000089
:101710001808384848380000000070704030000059
:101720001020702020700000000038484838083031
:10173000C040704848E80000200060202070000091
:101740002000701010101070C040587050D8000069
:1017500060202020207000000000D0A8A8A8000071
:101760000000F04848C80000000030484830000041
:101770000000F048487040E0000038484838081839
:101780000000782020700000000030201060000071
:101790000040F040483000000000D84848380000C1
:1017A0000000C848303000000000D8A8A850000051
:1017B00000004830304800000000D8505020206021
:1017C00000007850287800001020206020201000B1
:1017D00020202020202020004020203020204000F9
:1017E0000000002850000000000000000000000081
:1017F0000000000000101010101000001000000089
:10180000006C48480000000000000000001414288C
:101810007C287C2850500000001038404038487028
:1018200010100000002050200C7008140800000068
:101830000000001820205448340000000010101050
:101840001000000000000000000808101010101028
:101850001008080000202010101010101020200088
:1018600000107C102828000000000000000010106C
:1018700010FE101010000000000000000000001812
:101880001030200000000000007C0000000000007C
:1018900000000000000000303000000000040408D8
:1018A00008101020204000000038444444444444C0
:1018B0003800000000301010101010107C000000E4
:1018C00000384404081020447C0000000038440420
:1018D0001804044438000000000C141424447E044E
:1018E0000E000000003C20203804044438000000B2
:1018F000001C20407844444438000000007C44042C
:1019000008080810100000000038444438444444DB
:101910003800000000384444443C040870000000D3
:1019200000000030300000303000000000000018DF
:10193000180000183020000000000C1060806010BB
:101940000C000000000000007C007C000000000093
:101950000000C02018041820C00000000000182457
:1019600004081000300000003844444C54544C40EB
:10197000443800000030102828287C44EE00000085
:1019800000F8444478444444F8000000003C4440DB
:10199000404040443800000000F04844444444487B
:1019A000F000000000FC445070504044FC00000077
:1019B000007E22283828202070000000003C44408F
:1019C000404E44443800000000EE44447C4444440B
:1019D000EE000000007C1010101010107C000000C1
:1019E000003C0808084848483000000000EE444821
:1019F00050704844E600000000702020202024247D
:101A00007C00000000EE6C6C54544444EE00000076
:101A100000EE64645454544CEC000000003844441C
:101A20004444444438000000007824242438202012
:101A3000700000000038444444444444381C000012
:101A400000F8444444784844E200000000344C402C
:101A5000380404645800000000FE921010101010AA
:101A60003800000000EE4444444444443800000080
:101A700000EE4444282828101000000000EE4444E2
:101A8000545454542800000000C644281010284420
:101A9000C600000000EE4428281010103800000096
:101AA000007C4408101020447C00000000382020F6
:101AB0002020202020203800004020202010100866
:101AC0000808000000380808080808080808380056
:101AD000001010284400000000000000000000007A
:101AE00000000000000000FE0010080000000000E0
:101AF0000000000000000038443C44443E00000068
:101B000000C0405864444444F80000000000003C19
:101B10004440404438000000000C04344C44444429
:101B20003E00000000000038447C40403C000000C3
:101B3000001C207C202020207C00000000000036BB
:101B40004C4444443C04380000C04058644444447D
:101B5000EE00000000100070101010107C0000005B
:101B600000100078080808080808700000C0405CF1
:101B700048705048DC0000000030101010101010A9
:101B80007C000000000000E854545454FE000000A3
:101B9000000000D864444444EE0000000000003817
:101BA0004444444438000000000000D864444444E5
:101BB0007840E000000000364C4444443C040E00F1
:101BC0000000006C302020207C0000000000003C61
:101BD00044380444780000000000207C20202022AB
:101BE0001C000000000000CC4444444C36000000BF
:101BF000000000EE4444282810000000000000EE21
:101C00004454545428000000000000CC48303048B0
:101C1000CC000000000000EE4424281810107800CA
:101C20000000007C481020447C00000000081010D8
:101C300010102010101008000010101010101010BC
:101C400010100000002010101010081010102000BC
:101C50000000000000245800000000000000000008
:101C60000000000000000000000000000000001064
:101C70001010101010100000181800000012362468
:101C800048000000000000000000000000000024E8
:101C90002424FE484848FE48484800000000103808
:101CA0005454503018141454543810100000004488
:101CB000A4A8A8A8541A2A2A2A4400000000003028
:101CC000484848506EA494888976000000606020DF
:101CD000C000000000000000000000000002040836
:101CE0000810101010101008080402000040201006
:101CF0001008080808080810102040000000000024
:101D00001010D63838D61010000000000000000077
:101D100010101010FE101010100000000000000045
:101D20000000000000000000606020C00000000013
:101D3000000000007F000000000000000000000024
:101D400000000000000000006060000000000102D0
:101D50000204040808101020204040000000001871
:101D60002442424242424242241800000000001035
:101D70007010101010101010107C00000000003CBB
:101D80004242420404081020427E00000000003C51
:101D900042420418040202424438000000000004D9
:101DA0000C14242444447E04041E00000000007E21
:101DB0004040405864020242443800000000001CC9
:101DC0002440405864424242241800000000007E33
:101DD0004444080810101010101000000000003CCF
:101DE0004242422418244242423C000000000018B3
:101DF00024424242261A0202243800000000000059
:101E00000000181800000000181800000000000072
:101E10000000001000000000001010200000000270
:101E200004081020402010080402000000000000F8
:101E30000000FE000000FE00000000000000004066
:101E40002010080402040810204000000000003C9C
:101E5000424262020408080018180000000000381E
:101E6000445AAAAAAAAAB4424438000000000010AA
:101E700010182828243C444242E70000000000F8E3
:101E8000444444784442424244F800000000003E8A
:101E9000424280808080804244380000000000F888
:101EA000444242424242424244F80000000000FCE8
:101EB000424848784848404242FC0000000000FC8C
:101EC000424848784848404040E000000000003C5C
:101ED00044448080808E844444380000000000E741
:101EE000424242427E42424242E700000000007C01
:101EF0001010101010101010107C00000000003E98
:101F00000808080808080808080888F0000000EE1B
:101F1000444850705048484444EE0000000000E03F
:101F2000404040404040404042FE0000000000EE83
:101F30006C6C6C6C5454545454D60000000000C7B0
:101F4000626252524A4A4A4646E2000000000038A5
:101F5000448282828282828244380000000000FC37
:101F6000424242427C40404040E0000000000038D5
:101F7000448282828282B2CA4C380600000000FC91
:101F80004242427C4848444442E300000000003E94
:101F90004242402018040242427C0000000000FE41
:101FA000921010101010101010380000000000E700
:101FB0004242424242424242423C0000000000E7AC
:101FC000424244242428281810100000000000D6A3
:101FD00092929292AAAA6C4444440000000000E746
:101FE000422424181818242442E70000000000EEC0
:101FF0004444282810101010103800000000007E03
:10200000840408081020204242FC0000001E10102A
:10201000101010101010101010101E000000404082
:102020002020101010080804040402020078080898
:10203000080808080808080808087800001C22009A
:102040000000000000000000000000000000000090
:102050000000000000000000000000FF00606020A1
:10206000C0000000000000000000000000000000B0
:102070000000003C421E2242423F0000000000C01F
:102080004040405864424242645800000000000052
:102090000000001C22404040221C000000000006FE
:1020A0000202021E22424242261B000000000000E3
:1020B0000000003C427E4040423C00000000000F17
:1020C0001110107E10101010107C00000000000095
:1020D0000000003E444438403C42423C000000C006
:1020E0004040405C6242424242E700000000003053
:1020F0003000007010101010107C00000000000C68
:102100000C00001C0404040404044478000000C013
:102110004040404E4850684844EE000000000070C7
:102120001010101010101010107C000000000000A3
:10213000000000FE4949494949ED00000000000047
:10214000000000DC6242424242E700000000000062
:102150000000003C42424242423C000000000000BD
:10216000000000D864424242447840E00000000091
:102170000000001E22424242221E02070000000010
:10218000000000EE3220202020F8000000000000B7
:102190000000003E42403C02427C00000000000083
:1021A0000010107C10101010100C00000000000037
:1021B000000000C642424242463B000000000000D0
:1021C000000000E742242428101000000000000056
:1021D000000000D79292AAAA444400000000000028
:1021E0000000006E2418181824760000000000007B
:1021F000000000E742242428181010E0000000002E
:102200000000007E44081010227E00000003040439
:10221000040404080404040404040300080808086F
:1022200008080808080808080808080800601010CE
:10223000101010081010101010106000304C4300E7
:10224000000000000000000000000000000000008E
:10225000000000000000000000000000000000007E
:10226000000000000000000000000000000000006E
:10227000000000000000070007000700070007003B
:10228000070007000200020000000000070007002E
:10229000000000000000000000000000000000003E
:1022A0001CE01CE01CE00840084008400000000062
:1022B000000000000000000000000000000000001E
:1022C000000000000CC00CC00CC00CC00CC03FF0E3
:1022D0003FF00CC00CC03FF03FF00CC00CC00CC075
:1022E0000CC00CC000000000000000000300030050
:1022F00007E00FE0186018001F000FC000E0186032
:1023000018601FC01F8003000300030000000000CE
:102310000000000000001C002200220022001C60BF
:1023200001E00F803C0031C002200220022001C0E9
:10233000000000000000000000000000000000009D
:10234000000003E00FE00C000C0006000F301FF04F
:1023500019E018C01FF007B00000000000000000E6
:1023600000000000000000000380038003800100E3
:10237000010001000000000000000000000000005B
:10238000000000000000000000000000000000C08D
:1023900000C00180018001800300030003000300EE
:1023A0000300030001800180018000C000C0000024
:1023B0000000000000000C000C00060006000600F3
:1023C00003000300030003000300030006000600EF
:1023D00006000C000C0000000000000000000300DC
:1023E000030003001B601FE0078007800FC00CC0C4
:1023F00000000000000000000000000000000000DD
:1024000000000000000000000000030003000300C3
:1024100003003FF03FF0030003000300030000004F
:1024200000000000000000000000000000000000AC
:10243000000000000000000000000000000000009C
:1024400000000380030003000600060004000000F3
:10245000000000000000000000000000000000007C
:1024600000003FE03FE0000000000000000000002E
:10247000000000000000000000000000000000005C
:10248000000000000000000000000000000000004C
:1024900000000380038003800000000000000000B3
:1024A000000000000060006000C000C000C00180AB
:1024B000018003000300060006000C000C000C0065
:1024C00018001800000000000000000000000F804D
:1024D0001FC018C0306030603060306030603060E5
:1024E000306018C01FC00F80000000000000000016
:1024F00000000000000003001F001F000300030095
:102500000300030003000300030003001FE01FE0BB
:1025100000000000000000000000000000000F802C
:102520001FC038E03060006000C00180030006007A
:102530000C0018003FE03FE0000000000000000039
:102540000000000000000F803FC030E0006000E0AD
:1025500007C007C000E00060006060E07FC03F800F
:10256000000000000000000000000000000001C0AA
:1025700003C003C006C00CC00CC018C030C03FE090
:102580003FE000C003E003E00000000000000000A6
:102590000000000000001FC01FC0180018001F80AE
:1025A0001FC018E000600060006030E03FC01F8086
:1025B000000000000000000000000000000003E038
:1025C0000FE01E001800380037803FC038E0306050
:1025D000306018E01FC0078000000000000000000D
:1025E0000000000000003FE03FE03060006000C0FD
:1025F00000C000C0018001800180030003000300CF
:1026000000000000000000000000000000000F803B
:102610001FC038E0306038E01FC01FC038E03060B5
:10262000306038E01FC00F80000000000000000094
:102630000000000000000F001FC038C03060306094
:1026400038E01FE00F6000E000C003C03F803E00A4
:10265000000000000000000000000000000000007A
:1026600000000000000003800380038000000000E1
:1026700000000380038003800000000000000000D1
:10268000000000000000000000000000000001C089
:1026900001C001C00000000000000380030006002C
:1026A0000600040000000000000000000000000020
:1026B0000000003000F003C007001C0078001C0080
:1026C000070003C000F00030000000000000000020
:1026D00000000000000000000000000000007FF08B
:1026E0007FF0000000007FF07FF00000000000009D
:1026F00000000000000000000000000000000000DA
:10270000000030003C000F00038000E0007800E093
:1027100003800F003C0030000000000000000000BB
:1027200000000000000000000F801FC0186018604B
:10273000006001C0038003000000000007000700E4
:102740000000000000000000000000000000038006
:102750000C8008401040104011C01240124012403E
:1027600011C01000080008400780000000000000B1
:1027700000000000000000001F801F80038006C0D2
:1027800006C00CC00C601FE01FE03030787878780D
:102790000000000000000000000000000000000039
:1027A0003F803FC01860186018E01FC01FE018701D
:1027B000183018303FF03FE000000000000000003B
:1027C000000000000000000007B00FF01C7038305F
:1027D000300030003000300038301C700FE007C08F
:1027E00000000000000000000000000000000000E9
:1027F0007F807FC030E0307030303030303030306B
:10280000307030E07FC07F800000000000000000DA
:1028100000000000000000003FF03FF018301830CA
:1028200019801F801F801980183018303FF03FF04A
:102830000000000000000000000000000000000098
:102840003FF03FF01830183019801F801F8019802A
:10285000180018003F003F000000000000000000CA
:10286000000000000000000007B01FF018703030BA
:102870003000300031F831F8303018301FF007C028
:102880000000000000000000000000000000000048
:102890003CF03CF01860186018601FE01FE0186002
:1028A000186018603CF03CF00000000000000000E0
:1028B00000000000000000001FE01FE00300030014
:1028C0000300030003000300030003001FE01FE0F8
:1028D00000000000000000000000000000000000F8
:1028E00003F803F800600060006000603060306052
:1028F000306030E03FC00F800000000000000000AA
:1029000000000000000000003EF83EF818E01980CA
:102910001B001F001D8018C018C018603E783E388C
:1029200000000000000000000000000000000000A7
:102930003F003F000C000C000C000C000C000C30A1
:102940000C300C303FF03FF00000000000000000B1
:1029500000000000000000007878787838703CF0C3
:1029600034B037B037B03330333030307CF87CF8A7
:102970000000000000000000000000000000000057
:1029800039F03DF01C601E601E601B601B6019E08A
:1029900019E018E03EE03E6000000000000000008A
:1029A000000000000000000007800FC01CE038702D
:1029B000303030303030303038701CE00FC007809D
:1029C0000000000000000000000000000000000007
:1029D0003FC03FE018701830183018701FE01FC05B
:1029E000180018003F003F00000000000000000039
:1029F000000000000000000007800FC01CE03870DD
:102A0000303030303030303038701CE00FC007804C
:102A100007B00FF00CE00000000000000000000014
:102A20003FC03FE01870183018701FE01FC018E05A
:102A3000186018703E383E180000000000000000CA
:102A400000000000000000000FB01FF038703030B0
:102A500038001F8007E00070303038703FE037C02A
:102A60000000000000000000000000000000000066
:102A70003FF03FF0333033303330030003000300C6
:102A8000030003000FC00FC00000000000000000A2
:102A900000000000000000003CF03CF018601860EE
:102AA000186018601860186018601CE00FC007807C
:102AB0000000000000000000000000000000000016
:102AC00078F078F03060306018C018C00D800D804C
:102AD0000D80070007000700000000000000000054
:102AE00000000000000000007C7C7C7C30183398E3
:102AF0003398339836D816D01C701C701C70183060
:102B000000000000000000000000000000000000C5
:102B100078F078F0306018C00D80070007000D8055
:102B200018C0306078F078F000000000000000006D
:102B300000000000000000003CF03CF018600CC0F9
:102B40000780078003000300030003000FC00FC0CD
:102B50000000000000000000000000000000000075
:102B60001FE01FE0186018C001800300030006008A
:102B70000C6018601FE01FE0000000000000000073
:102B800000000000000003C003C0030003000300B6
:102B9000030003000300030003000300030003001D
:102BA000030003C003C0000000000000180018006C
:102BB0000C000C000C00060006000300030001805E
:102BC000018000C000C000C0006000600000000084
:102BD0000000000000000F000F00030003000300CE
:102BE00003000300030003000300030003000300CD
:102BF00003000F000F0000000000000000000200B2
:102C000007000D8018C03060202000000000000088
:102C100000000000000000000000000000000000B4
:102C200000000000000000000000000000000000A4
:102C30000000000000000000000000000000000094
:102C40000000000000000000FFFCFFFC000004008A
:102C500003000080000000000000000000000000F1
:102C60000000000000000000000000000000000064
:102C700000000000000000000000000000000FC085
:102C80001FE000600FE01FE0386030E03FF01F7091
:102C900000000000000000000000000000007000C4
:102CA00070003000300037803FE038603030303026
:102CB000303038607FE077800000000000000000C6
:102CC000000000000000000000000000000007B04D
:102CD0001FF0183030303000300038301FF00FC097
:102CE0000000000000000000000000000000007074
:102CF00000700030003007B01FF0187030303030F6
:102D0000303038701FF807B80000000000000000E5
:102D1000000000000000000000000000000007802C
:102D20001FE018603FF03FF0300018301FF007C080
:102D3000000000000000000000000000000003F0A0
:102D400007F0060006001FE01FE006000600060070
:102D5000060006001FE01FE0000000000000000069
:102D6000000000000000000000000000000007B8A4
:102D70001FF8187030303030303018701FF007B046
:102D8000003000700FE00FC00000000000003800AD
:102D90003800180018001BC01FE01C601860186085
:102DA000186018603CF03CF00000000000000000DB
:102DB00000000000000003000300000000001F00EE
:102DC0001F00030003000300030003001FE01FE0D7
:102DD00000000000000000000000000000000300F0
:102DE0000300000000001FC01FC000C000C000C0E2
:102DF00000C000C000C000C000C001C03F803F0054
:102E000000000000000038003800180018001BE027
:102E10001BE01B001E001E001B00198039F039F05A
:102E200000000000000000000000000000001F0083
:102E30001F0003000300030003000300030003005E
:102E4000030003001FE01FE000000000000000007E
:102E500000000000000000000000000000007EE014
:102E60007FF0333033303330333033307BB87BB89E
:102E70000000000000000000000000000000000052
:102E80000000000000003BC03FE01C6018601860BC
:102E9000186018603CF03CF00000000000000000EA
:102EA000000000000000000000000000000007809B
:102EB0001FE0186030303030303018601FE007807D
:102EC0000000000000000000000000000000000002
:102ED00000000000000077807FE038603030303044
:102EE000303038603FE03780300030007C007C00BC
:102EF000000000000000000000000000000007B813
:102F00001FF8187030303030303018701FF007B0B4
:102F10000030003000F800F8000000000000000061
:102F20000000000000003CE03DF00F300E000C00FF
:102F30000C000C003FC03FC000000000000000007B
:102F4000000000000000000000000000000007E09A
:102F50001FE018601E000FC001E018601FE01F8016
:102F60000000000000000000000000000000000061
:102F70000C000C000C003FE03FE00C000C000C00CB
:102F80000C000C300FF007C0000000000000000033
:102F9000000000000000000000000000000038E019
:102FA00038E0186018601860186018E01FF00F70A3
:102FB0000000000000000000000000000000000011
:102FC00000000000000078F078F0306018C018C0F1
:102FD0000D800D80070007000000000000000000C9
:102FE000000000000000000000000000000078F079
:102FF00078F03260326037E01DC01DC018C018C0C4
:1030000000000000000000000000000000000000C0
:103010000000000000003CF03CF00CC00780030002
:1030200007800CC03CF03CF00000000000000000F5
:10303000000000000000000000000000000078F028
:1030400078F0306018C018C00D800F8007000600AF
:1030500006000C007F007F00000000000000000060
:103060000000000000001FE01FE018C00180030006
:1030700006000C601FE01FE00000000000000000E0
:1030800000000000000001C003C0030003000300B3
:103090000300030007000E00070003000300030005
:1030A000030003C001C00000000000000000030096
:1030B00003000300030003000300030003000300F8
:1030C00003000300030003000300030003000000EB
:1030D0000000000000001C001E00060006000600A4
:1030E0000600060007000380070006000600060031
:1030F00006001E001C000000000000000000000090
:1031000000000000000000000E003F3033F001E03E
:1031100000000000000000000000000000000000AF
:10312000000000000000000000000000000000009F
:10313000000000000000000000000000000000008F
:10314000000000000000000000000000000000007F
:10315000000000000000000000000000000000006F
:10316000000000000000000000000000000000005F
:1031700000000380000380000380000380000380C0
:103180000003800003800003800003800001000032
:103190000100000000000000000380000380000028
:1031A000000000000000000000000000000000001F
:1031B000000000000000000000000000000E700091
:1031C0000E70000E70000420000420000420000493
:1031D00020000000000000000000000000000000CF
:1031E00000000000000000000000000000000000DF
:1031F00000000000000000000000000000000000CF
:1032000000000660000660000660000660000660C0
:10321000003FF8003FF8000660000CC0003FF800D7
:103220003FF8000CC0000CC0000CC0000CC0000C2B
:10323000C0000000000000000000000000000000CE
:103240000000000000000001800001800007B000C5
:103250000FF0001870001870001C00000F800007AD
:10326000E00000F0001830001C30001C70001FE06F
:10327000001BC0000180000180000180000180006F
:10328000000000000000000000000000000000003E
:1032900000000780000FC0001CE0001860001860EC
:1032A000001CE0000FF80007E0001FF000073800E6
:1032B00006180006180007380003F00001E00000BF
:1032C00000000000000000000000000000000000FE
:1032D00000000000000000000000000000000000EE
:1032E00003F00007F0000C60000C00000C0000066A
:1032F00000000700000F9C001DFC0018F000187073
:10330000000FFC0007DC00000000000000000000CF
:1033100000000000000000000000000000000000AD
:103320000000000000038000038000038000010013
:10333000000100000100000100000000000000008A
:10334000000000000000000000000000000000007D
:10335000000000000000000000000000000000006D
:10336000000000000000000000000018000038000D
:1033700000700000F00000E00000E00001C000016B
:10338000C00001C00001C00001C00001C00000E099
:103390000000E0000070000070000038000018001D
:1033A000000000000000000000000000000000001D
:1033B00000001800001C00000E00000E00000700B6
:1033C00000070000038000038000038000038000EA
:1033D0000380000380000700000700000F00000EBC
:1033E00000001C00001800000000000000000000A9
:1033F00000000000000000000000018000018000CB
:103400000180001DB8001FF80007E00003C00003A2
:10341000C000066000066000000000000000000020
:10342000000000000000000000000000000000009C
:10343000000000000000000000000000000000008C
:1034400000000000000000000180000180000180F9
:10345000000180000180003FFC003FFC0001800073
:103460000180000180000180000180000000000058
:10347000000000000000000000000000000000004C
:10348000000000000000000000000000000000003C
:10349000000000000000000000000000000000002C
:1034A000000000000000000000000000000000E03C
:1034B0000000C00001C00001800001800003000086
:1034C00003000000000000000000000000000000F9
:1034D00000000000000000000000000000000000EC
:1034E000000000000000001FF8001FF800000000AE
:1034F00000000000000000000000000000000000CC
:1035000000000000000000000000000000000000BB
:1035100000000000000000000000000000000000AB
:10352000000000000000000000000000000000009B
:10353000000000000000000000000000000003C0C8
:103540000003C00003C000000000000000000000F5
:103550000000000000000000000000000018000053
:1035600018000038000030000070000060000060AB
:103570000000C00000C000018000018000030000C6
:103580000300000600000600000E00000C00001CF6
:1035900000001800001800000000000000000000FB
:1035A0000000000000000000000003C00007E00071
:1035B0000C30000C300018180018180018180018EB
:1035C00018001818001818001818000C30000C30DB
:1035D0000007E00003C00000000000000000000041
:1035E00000000000000000000000000000000000DB
:1035F00000000080000780001F80001D8000018007
:103600000001800001800001800001800001800035
:103610000180000180000180001FF8001FF80000F9
:10362000000000000000000000000000000000009A
:103630000000000000000000000007C0001FF000B4
:10364000383000301800301800001800003000003A
:10365000600001C0000380000600000C000018009C
:10366000003FF8003FF800000000000000000000EC
:10367000000000000000000000000000000000004A
:10368000000003C0000FE0000C70000030000030AC
:103690000000600003C00003E0000070000018009C
:1036A0000018000018001838001FF0000FC00000BC
:1036B000000000000000000000000000000000000A
:1036C0000000000000000000000000E00001E00039
:1036D00001E0000360000660000660000C60000C62
:1036E00060001860003060003FF8003FF8000060A4
:1036F0000003F80003F800000000000000000000D4
:1037000000000000000000000000000000000000B9
:1037100000001FF0001FF000180000180000180043
:10372000001BC0001FF0001C300000180000180033
:103730000018000018003030003FF0000FC00000FB
:103740000000000000000000000000000000000079
:103750000000000000000000000000F80003F80076
:103760000700000E00000C00001800001BC0001F26
:10377000F0001C30001818001818001818000C3839
:10378000000FF00003E00000000000000000000057
:103790000000000000000000000000000000000029
:1037A00000001FF8001FF80018180018380000303B
:1037B0000000300000700000600000600000E000C9
:1037C00000C00000C00001C00001800001800000B6
:1037D00000000000000000000000000000000000E9
:1037E0000000000000000000000007E0000FF000F3
:1037F0001C38001818001818000C300007E00007EB
:10380000E0000C30001818001818001818001C38B8
:10381000000FF00007E000000000000000000000C2
:103820000000000000000000000000000000000098
:10383000000007C0000FF0001C3000181800181816
:10384000001818000C38000FF80003D8000018000A
:1038500000300000700000E0001FC0001F000000EA
:103860000000000000000000000000000000000058
:103870000000000000000000000000000000000048
:1038800000000000000003C00003C00003C00000EF
:10389000000000000000000000000000000003C065
:1038A0000003C00003C00000000000000000000092
:1038B0000000000000000000000000000000000008
:1038C000000000000000000000000000000000F008
:1038D0000000F00000F00000000000000000000008
:1038E00000000000E00001C0000180000180000332
:1038F00000000200000000000000000000000000C6
:1039000000000000000000000000000000000000B7
:10391000001C00003C0000F00003C0000F00003C51
:103920000000F000003C00000F000003C00000F0A9
:1039300000003C00001C000000000000000000002F
:103940000000000000000000000000000000000077
:103950000000000000000000000000000000000067
:10396000007FFC007FFC000000000000007FFC00E6
:103970007FFC0000000000000000000000000000CC
:103980000000000000000000000000000000000037
:103990000000000000000000000000000000000027
:1039A0007000007800001E000007800001E00000A9
:1039B0007800001E0000780001E0000780001E0073
:1039C000007800007000000000000000000000000F
:1039D00000000000000000000000000000000000E7
:1039E000000000000007C0000FE000187000183051
:1039F0000018300000700000E00003C000038000E9
:103A000003000000000000000007000007000000A5
:103A100000000000000000000000000000000000A6
:103A20000000000000000000000003E00007F000BC
:103A30000E38000C180018780018F80019D8001972
:103A4000980019980019980018F8001878001800C4
:103A5000000C00000E180007F80003E00000000052
:103A60000000000000000000000000000000000056
:103A700000000000001F80001FC00001C0000360A4
:103A8000000360000630000630000C30000FF80024
:103A90001FF800180C00300C00FC7F00FC7F0000B9
:103AA0000000000000000000000000000000000016
:103AB000000000000000000000000000007FE000A7
:103AC0007FF0001838001818001818001838001F68
:103AD000F0001FF800181C00180C00180C00180C3F
:103AE000007FF8007FF000000000000000000000F0
:103AF00000000000000000000000000000000000C6
:103B0000000000000003EC000FFC001C1C00180C5F
:103B100000300C00300000300000300000300000A9
:103B2000300000180C001C1C000FF80003F000000F
:103B30000000000000000000000000000000000085
:103B4000000000000000000000000000007FC00036
:103B50007FF000183800181800180C00180C001816
:103B60000C00180C00180C00180C0018180018385D
:103B7000007FF0007FE00000000000000000000077
:103B80000000000000000000000000000000000035
:103B900000000000007FF8007FF8001818001818D7
:103BA000001998001980001F80001F8000198000F4
:103BB0001998001818001818007FF8007FF8000006
:103BC00000000000000000000000000000000000F5
:103BD000000000000000000000000000003FFC00AA
:103BE0003FFC000C0C000C0C000CCC000CC0000FB7
:103BF000C0000FC0000CC0000CC0000C00000C0086
:103C0000003FC0003FC000000000000000000000B6
:103C100000000000000000000000000000000000A4
:103C2000000000000003EC000FFC001C1C00180C3E
:103C300000300C0030000030000030FE0030FE008C
:103C4000300C00380C001C1C000FFC0003F00000BE
:103C50000000000000000000000000000000000064
:103C6000000000000000000000000000007E7E0058
:103C70007E7E001818001818001818001818001F69
:103C8000F8001FF800181800181800181800181865
:103C9000007E7E007E7E000000000000000000002C
:103CA0000000000000000000000000000000000014
:103CB00000000000001FF8001FF8000180000180D4
:103CC000000180000180000180000180000180006F
:103CD0000180000180000180001FF8001FF8000033
:103CE00000000000000000000000000000000000D4
:103CF0000000000000000000000000000007FE00BF
:103D000007FE0000300000300000300000300000EE
:103D10003000303000303000303000303000306063
:103D2000003FE0000F8000000000000000000000E5
:103D30000000000000000000000000000000000083
:103D400000000000007F3E007F3E00183000186039
:103D50000018C0001980001B80001FC0001CE0007C
:103D60001870001830001838007F1F007F1F0000F7
:103D70000000000000000000000000000000000043
:103D8000000000000000000000000000007F800034
:103D90007F80000C00000C00000C00000C00000CE8
:103DA00000000C00000C0C000C0C000C0C000C0CA7
:103DB000007FFC007FFC000000000000000000000D
:103DC00000000000000000000000000000000000F3
:103DD0000000000000F00F00F81F00381C003C3C01
:103DE000003C3C00366C00366C0033CC0033CC0019
:103DF000318C00300C00300C00FE7F00FE7F000094
:103E000000000000000000000000000000000000B2
:103E10000000000000000000000000000078FE002C
:103E200078FE001C18001E18001F18001B18001B2D
:103E3000980019D80018D80018F800187800183819
:103E4000007F18007F180000000000000000000044
:103E50000000000000000000000000000000000062
:103E6000000000000003C0000FF0001C380018180C
:103E700000381C00300C00300C00300C00300C00FE
:103E8000381C001818001C38000FF00003C0000098
:103E90000000000000000000000000000000000022
:103EA000000000000000000000000000003FF000E3
:103EB0003FF8000C1C000C0C000C0C000C0C000C4F
:103EC00018000FF8000FE0000C00000C00000C00C0
:103ED000003FC0003FC000000000000000000000E4
:103EE00000000000000000000000000000000000D2
:103EF000000000000003C0000FF0001C380018187C
:103F000000381C00300C00300C00300C00300C006D
:103F1000381C001818001C38000FF00007C00007FC
:103F2000CC000FFC000C3800000000000000000076
:103F3000000000000000000000000000007FE00022
:103F40007FF0001838001818001818001838001FE3
:103F5000F0001FC00018E00018700018300018387A
:103F6000007F1E007F0E0000000000000000000027
:103F70000000000000000000000000000000000041
:103F8000000000000007D8000FF8001C38001818C7
:103F9000001818001E00000FC00003F00000780099
:103FA0001818001818001C38001FF0001BE0000053
:103FB0000000000000000000000000000000000001
:103FC000000000000000000000000000003FFC00B6
:103FD0003FFC00318C00318C00318C00318C0001B1
:103FE00080000180000180000180000180000180CC
:103FF000000FF0000FF000000000000000000000C3
:1040000000000000000000000000000000000000B0
:1040100000000000007E7E007E7E00181800181848
:1040200000181800181800181800181800181800A0
:104030001818001818000C30000FF00003C0000022
:104040000000000000000000000000000000000070
:10405000000000000000000000000000007F7F0062
:104060007F7F00180C000C18000C18000C180006BC
:10407000300006300003600003600003600001C0F0
:104080000001C000008000000000000000000000EF
:104090000000000000000000000000000000000020
:1040A0000000000000FE3F80FE3F8030060030062A
:1040B0000030860019CC0019CC001B6C001B6C0072
:1040C0001E7C000E38000E38000C18000C18000082
:1040D00000000000000000000000000000000000E0
:1040E000000000000000000000000000007E7E00D4
:1040F0007E7E001818000C300006600003C000012E
:10410000800001800003C0000660000C3000181819
:10411000007E7E007E7E00000000000000000000A7
:10412000000000000000000000000000000000008F
:1041300000000000007C7E007C7E001818000C301F
:104140000006600006600003C000018000018000DE
:104150000180000180000180000FF0000FF00000DE
:10416000000000000000000000000000000000004F
:10417000000000000000000000000000001FF80028
:104180001FF80018180018300018600018C000014F
:1041900080000300000618000C18001818003018E2
:1041A000003FF8003FF800000000000000000000A1
:1041B00000000000000000000000000000000000FF
:1041C000000001F00001F00001800001800001808A
:1041D000000180000180000180000180000180005A
:1041E0000180000180000180000180000180000149
:1041F000800001F00001F00000000000000000005D
:10420000000000001800001800001C00000C000056
:104210000E0000060000060000030000030000017D
:10422000800001800000C00000C00000600000604D
:104230000000700000300000380000180000180076
:10424000000000000000000000000000000000006E
:1042500000000F80000F80000180000180000180BD
:1042600000018000018000018000018000018000C9
:1042700001800001800001800001800001800001B8
:1042800080000F80000F8000000000000000000090
:104290000000000000000000800001C00003E000FA
:1042A0000770000630000C1800180C001004000005
:1042B00000000000000000000000000000000000FE
:1042C00000000000000000000000000000000000EE
:1042D00000000000000000000000000000000000DE
:1042E00000000000000000000000000000000000CE
:1042F00000000000000000000000000000000000BE
:1043000000000000000000000000000000000000AD
:104310000000000000000000000000000000FFFF9F
:1043200000FFFF0000000003000003800000E00029
:10433000006000000000000000000000000000001D
:10434000000000000000000000000000000000006D
:10435000000000000000000000000000000000005D
:10436000000000000000000000000000000000004D
:1043700000000000000000000000000000000FC06E
:10438000001FE00000300000300007F0001FF000C8
:104390003830003030003070001FFC000FBC0000CF
:1043A000000000000000000000000000000000000D
:1043B000000000000000000000007800007800000D
:1043C0001800001800001BE0001FF8001C1800185F
:1043D0000C00180C00180C00180C00180C001C180D
:1043E000007FF8007BE000000000000000000000FB
:1043F00000000000000000000000000000000000BD
:10440000000000000000000000000000000003ECBD
:10441000000FFC001C1C00380C00300C00300000A9
:10442000300000380C001C1C000FF80003F00000E6
:10443000000000000000000000000000000000007C
:10444000000000000000000000000078000078007C
:1044500000180000180007D8001FF80018380030B6
:1044600018003018003018003018003018001838C4
:10447000001FFE0007DE000000000000000000003A
:10448000000000000000000000000000000000002C
:10449000000000000000000000000000000007E035
:1044A000001FF800181800300C003FFC003FFC0013
:1044B000300000300000180C001FFC0007F0000066
:1044C00000000000000000000000000000000000EC
:1044D0000000000000000000000001FC0003FC00E0
:1044E0000600000600003FF8003FF8000600000646
:1044F000000006000006000006000006000006009E
:10450000003FF0003FF0000000000000000000004D
:10451000000000000000000000000000000000009B
:10452000000000000000000000000000000007DEA6
:10453000001FFE0018380030180030180030180036
:104540003018003018001838001FF80007D8000095
:1045500018000018000038000FF0000FC000000025
:10456000000000000000000000007800007800005B
:104570001800001800001BE0001FF0001C38001895
:104580001800181800181800181800181800181823
:10459000007E7E007E7E0000000000000000000023
:1045A000000000000000000000000000000000000B
:1045B00000000180000180000000000000001F805A
:1045C000001F800001800001800001800001800048
:1045D0000180000180000180003FFC003FFC0000E2
:1045E00000000000000000000000000000000000CB
:1045F0000000000000000000000000C00000C0003B
:104600000000000000001FF0001FF000003000005C
:10461000300000300000300000300000300000307A
:10462000000030000030000030000030000070005A
:104630001FE0001F800000000000000000000000DC
:1046400000003C00003C00000C00000C00000CF8D6
:10465000000CF8000CC0000D80000F80000F00005F
:104660000F80000DC0000CE0003C7C003C7C000092
:10467000000000000000000000000000000000003A
:10468000000000000000000000001F80001F8000EC
:104690000180000180000180000180000180000194
:1046A0008000018000018000018000018000018005
:1046B000003FFC003FFC0000000000000000000084
:1046C00000000000000000000000000000000000EA
:1046D0000000000000000000000000000000F7786B
:1046E00000FFFC0039CC00318C00318C00318C0093
:1046F000318C00318C00318C00FDEF00FDEF0000AB
:1047000000000000000000000000000000000000A9
:104710000000000000000000000000000000000099
:104720000000000000007BE0007FF0001C38001853
:104730001800181800181800181800181800181871
:10474000007E7E007E7E0000000000000000000071
:104750000000000000000000000000000000000059
:10476000000000000000000000000000000003C086
:10477000000FF0001C3800381C00300C00300C001A
:10478000300C00381C001C38000FF00003C0000083
:104790000000000000000000000000000000000019
:1047A0000000000000000000000000000000000009
:1047B0000000000000007BE0007FF8001C180018DB
:1047C0000C00180C00180C00180C00180C001C1819
:1047D000001FF8001BE0001800001800001800007F
:1047E0007F00007F000000000000000000000000CB
:1047F000000000000000000000000000000007DED4
:10480000001FFE0018380030180030180030180063
:104810003018003018001838001FF80007D80000C2
:10482000180000180000180000FE0000FE00000044
:104830000000000000000000000000000000000078
:104840000000000000003E78003EFC0007CC00079E
:10485000000006000006000006000006000006003A
:10486000003FF0003FF000000000000000000000EA
:104870000000000000000000000000000000000038
:10488000000000000000000000000000000007F829
:10489000000FF8001818001818001F80000FF00013
:1048A00000F8001818001838001FF0001FE0000082
:1048B00000000000000000000000000000000000F8
:1048C000000000000000000000000C00000C0000D0
:1048D0000C00000C00003FF0003FF0000C00000C4A
:1048E00000000C00000C00000C00000C00000C1C70
:1048F0000007FC0003F000000000000000000000C2
:1049000000000000000000000000000000000000A7
:1049100000000000000000000000000000007878A7
:1049200000787800181800181800181800181800D7
:104930001818001818001838000FFE0007DE0000D5
:104940000000000000000000000000000000000067
:104950000000000000000000000000000000000057
:104960000000000000007C3E007C3E00181800188B
:1049700018000C30000C300006600006600007E0F4
:104980000003C00003C000000000000000000000A1
:104990000000000000000000000000000000000017
:1049A0000000000000000000000000000000783C53
:1049B00000783C003118003398003398001AB0009A
:1049C0001EF0001EF0001C60000C60000C60000077
:1049D00000000000000000000000000000000000D7
:1049E00000000000000000000000000000000000C7
:1049F0000000000000003E7C003E7C000C30000601
:104A0000600003C00001800003C0000660000C309D
:104A1000003E7C003E7C0000000000000000000022
:104A20000000000000000000000000000000000086
:104A300000000000000000000000000000007E1FD9
:104A4000007E1F00180C000C18000C180006300027
:104A500006300003600003E00001C00000C0000158
:104A600080000180000300003FC0003FC000000044
:104A70000000000000000000000000000000000036
:104A80000000000000001FF8001FF8001830001898
:104A9000600000C0000180000300000618000C1830
:104AA000001FF8001FF800000000000000000000D8
:104AB00000000000000000000000000000000000F6
:104AC000000000E00001E0000180000180000180A2
:104AD00000018000018000018000038000070000C9
:104AE000038000018000018000018000018000013E
:104AF000800001E00000E000000000000000000075
:104B000000000000000000000000018000018000A3
:104B1000018000018000018000018000018000010F
:104B20008000018000018000018000018000018080
:104B300000018000018000018000018000018000F0
:104B40000000000000000000000000000000000065
:104B50000000070000078000018000018000018044
:104B60000001800001800001800001C00000E00021
:104B700001C000018000018000018000018000016F
:104B80008000078000070000000000000000000017
:104B90000000000000000000000000000000000015
:104BA0000000000000000000000000000E00001FD8
:104BB00018003BB80031F00000E0000000000000E9
:104BC00000000000000000000000000000000000E5
:104BD000000000000000000000000000D0A3104012
:104BE0001020102011FEFC00108831043A02548875
:104BF000508890501050102010501088130600005C
:104C000000000000000000000000000000000000A4
:104C10000000000000000000000000000000000094
:104C20000000000000000000000000000000000084
:104C30000000000000000000000000000000000074
:104C40000000000000000000000000000000000064
:104C50000000000000000000000000000000D7BCC1
:104C600001404120212023FE022016201BFC12209F
:104C7000222023FCE2202220222023FE2200020008
:104C80000000000000000000000000000000000024
:104C90000000000000000000000000000000000014
:104CA0000000000000000000000000000000000004
:104CB00000000000000000000000000000000000F4
:104CC00000000000000000000000000000000000E4
:104CD00000000000000000000000000000000000D4
:104CE000B7F9100011FE10007CF85488548854F86D
:104CF000540055FC552455245DFC1124112411FC4D
:104D0000110400000000000000000000000000008E
:104D10000000000000000000000000000000000093
:104D20000000000000000000000000000000000083
:104D30000000000000000000000000000000000073
:104D40000000000000000000000000000000000063
:104D50000000000000000000000000000000000053
:104D60000000D6B5084008400FFC1040104033F852
:104D7000320853F8920813F8120813F812081208B0
:104D80001FFE1000000000000000000000000000F6
:104D90000000000000000000000000000000000013
:104DA0000000000000000000000000000000000003
:104DB00000000000000000000000000000000000F3
:104DC00000000000000000000000000000000000E3
:104DD00000000000000000000000000000000000D3
:104DE00000000000D5BC01000100010001FE01002F
:104DF0000100010001003FF82008200820082008D9
:104E000020083FF82008000000000000000000001B
:104E10000000000000000000000000000000000092
:104E20000000000000000000000000000000000082
:104E30000000000000000000000000000000000072
:104E40000000000000000000000000000000000062
:104E50000000000000000000000000000000000052
:104E6000000000000000BFD5020001007FFE4002EC
:104E700088241010200800001FF00100010001002C
:104E8000010001007FFC00000000000000000000A5
:104E90000000000000000000000000000000000012
:104EA0000000000000000000000000000000000002
:104EB00000000000000000000000000000000000F2
:104EC00000000000000000000000000000000000E2
:104ED00000000000000000000000000000000000D2
:104EE0000000000000000000B1C800802080208089
:104EF0002084208820903EA020C020802080208018
:104F0000208226823882207E0000000000000000FF
:104F10000000000000000000000000000000000091
:104F20000000000000000000000000000000000081
:104F30000000000000000000000000000000000071
:104F40000000000000000000000000000000000061
:104F50000000000000000000000000000000000051
:104F600000000000000000000000C6B5100011FEA7
:104F700050205C4051FC5104FF240124112455248D
:104F800055245544845008883104C20200000000B2
:104F90000000000000000000000000000000000011
:104FA0000000000000000000000000000000000001
:104FB00000000000000000000000000000000000F1
:104FC00000000000000000000000000000000000E1
:104FD00000000000000000000000000000000000D1
:104FE000000000000000000000000000C2CA020033
:104FF00001007FFC020044442F88111022484FE436
:1050000000200100FFFE010001000100010000007E
:105010000000000000000000000000000000000090
:105020000000000000000000000000000000000080
:105030000000000000000000000000000000000070
:105040000000000000000000000000000000000060
:105050000000000000000000000000000000000050
:105060000000000000000000000000000000C1E897
:105070000040404023F82040004007FE11101288F5
:105080002484E1F0231024A0204020A023100C0C45
:105090000000000000000000000000000000000010
:1050A0000000000000000000000000000000000000
:1050B00000000000000000000000000000000000F0
:1050C00000000000000000000000000000000000E0
:1050D00000000000000000000000000000000000D0
:1050E00000000000000000000000000000000000C0
:1050F000D6C720003E7C48440844FF441444227C28
:1051000040001FF0101010101FF0101010101FF0B2
:10511000101000000000000000000000000000006F
:10512000000000000000000000000000000000007F
:10513000000000000000000000000000000000006F
:10514000000000000000000000000000000000005F
:10515000000000000000000000000000000000004F
:10516000000000000000000000000000000000003F
:105170000000B5E70100010001003FF82108210807
:1051800021083FF82108210821083FF8210A0102DF
:10519000010200FE0000000000000000000000000E
:1051A00000000000000000000000000000000000FF
:1051B00000000000000000000000000000000000EF
:1051C00000000000000000000000000000000000DF
:1051D00000000000000000000000000000000000CF
:1051E00000000000000000000000000000000000BF
:1051F00000000000D7D300007FF80010002000401E
:1052000001800100FFFE010001000100010001001A
:105210000100050002000000000000000000000086
:10522000000000000000000000000000000000007E
:10523000000000000000000000000000000000006E
:10524000000000000000000000000000000000005E
:10525000000000000000000000000000000000004E
:10526000000000000000000000000000000000003E
:10527000000000000000C4A3111011141FFE111043
:10528000FD1813FC32083BF8560853F890401FFEF7
:10529000104010B0110E16040000000000000000C5
:1052A00000000000000000000000000000000000FE
:1052B00000000000000000000000000000000000EE
:1052C00000000000000000000000000000000000DE
:1052D00000000000000000000000000000000000CE
:1052E00000000000000000000000000000000000BE
:1052F0000000000000000000CABD008000A0009077
:105300000084FFFE008000803E8008800840084046
:1053100009200E227012200A000400000000000084
:10532000000000000000000000000000000000007D
:10533000000000000000000000000000000000006D
:10534000000000000000000000000000000000005D
:10535000000000000000000000000000000000004D
:10536000000000000000000000000000000000003D
:1053700000000000000000000000D1A100404240F9
:10538000324813FC02400444F7FE10A010A010A005
:1053900011221122121E2C00440603FC0000000002
:1053A00000000000000000000000000000000000FD
:1053B00000000000000000000000000000000000ED
:1053C00000000000000000000000000000000000DD
:1053D00000000000000000000000000000000000CD
:1053E00000000000000000000000000000000000BD
:1053F000000000000000000000000000D4F11000D8
:1054000013F8111010A0FC4010A015101A4E35F41E
:10541000D040104817FC1040104050402040000081
:10542000000000000000000000000000000000007C
:10543000000000000000000000000000000000006C
:10544000000000000000000000000000000000005C
:10545000000000000000000000000000000000004C
:10546000000000000000000000000000000000003C
:105470000000000000000000000000000000B5A5D2
:105480001010082004483FFC210821083FF821089B
:1054900021083FF821000104FFFE01000100010086
:1054A00000000000000000000000000000000000FC
:1054B00000000000000000000000000000000000EC
:1054C00000000000000000000000000000000000DC
:1054D00000000000000000000000000000000000CC
:1054E00000000000000000000000000000000000BC
:1054F00000000000000000000000000000000000AC
:10550000D2F4020001103FF8082004200444FFFEFA
:1055100000101FF8101010101FF0101010101FF0C6
:10552000101000000000000000000000000000005B
:10553000000000000000000000000000000000006B
:10554000000000000000000000000000000000005B
:10555000000000000000000000000000000000004B
:10556000000000000000000000000000000000003B
:10557000000000000000000000000000000000002B
:105580000000CAFD084049402A400884FFFE19086F
:105590002C884A881088FE902250222014501888A7
:1055A000250E420400000000000000000000000082
:1055B00000000000000000000000000000000000EB
:1055C00000000000000000000000000000000000DB
:1055D00000000000000000000000000000000000CB
:1055E00000000000000000000000000000000000BB
:1055F00000000000000000000000000000000000AB
:1056000000000000D7D6020001003FFC2004400843
:105610001FE0004000800104FFFE010001000100C6
:105620000100050002000000000000000000000072
:10563000000000000000000000000000000000006A
:10564000000000000000000000000000000000005A
:10565000000000000000000000000000000000004A
:10566000000000000000000000000000000000003A
:10567000000000000000000000000000000000002A
:10568000000000000000D0B10808080814082248F3
:105690004128BE08084808287F0E08F82A0829086B
:1056A0004908080828081008000000000000000051
:1056B00000000000000000000000000000000000EA
:1056C00000000000000000000000000000000000DA
:1056D00000000000000000000000000000000000CA
:1056E00000000000000000000000000000000000BA
:1056F00000000000000000000000000000000000AA
:105700000000000000000000C6C210201020102081
:1057100013FEFE221224122013FC128412881E484B
:10572000E25042200450088E1304000000000000E4
:105730000000000000000000000000000000000069
:105740000000000000000000000000000000000059
:105750000000000000000000000000000000000049
:105760000000000000000000000000000000000039
:105770000000000000000000000000000000000029
:1057800000000000000000000000B5F7400427FE04
:105790002444044405F4E444245427FC240425F45C
:1057A00025142D1435F425040814100800000000F9
:1057B00000000000000000000000000000000000E9
:1057C00000000000000000000000000000000000D9
:1057D00000000000000000000000000000000000C9
:1057E00000000000000000000000000000000000B9
:1057F00000000000000000000000000000000000A9
:10580000000000000000000000000000D6C60404F4
:10581000240425043FA4242444A4FFE404243FA436
:1058200024A424A424842684250404140408000049
:105830000000000000000000000000000000000068
:105840000000000000000000000000000000000058
:105850000000000000000000000000000000000048
:105860000000000000000000000000000000000038
:105870000000000000000000000000000000000028
:105880000000000000000000000000000000B2A2C4
:1058900010100C3004403FFC042004200420042499
:1058A000FFFE0420042004200820082010202020CF
:1058B00000000000000000000000000000000000E8
:1058C00000000000000000000000000000000000D8
:1058D00000000000000000000000000000000000C8
:1058E00000000000000000000000000000000000B8
:1058F00000000000000000000000000000000000A8
:105900000000000000000000000000000000000097
:10591000D0D008080BFC100020004000080417FE3F
:105920003010501090101010101010101010105057
:105930001020000000000000000000000000000037
:105940000000000000000000000000000000000057
:105950000000000000000000000000000000000047
:105960000000000000000000000000000000000037
:105970000000000000000000000000000000000027
:105980000000000000000000000000000000000017
:105990000000BEDD100413FE12041204FFFC1220EE
:1059A00016241BFE3220D22413FE15041504150400
:1059B00059FC21040000000000000000000000006D
:1059C00000000000000000000000000000000000D7
:1059D00000000000000000000000000000000000C7
:1059E00000000000000000000000000000000000B7
:1059F00000000000000000000000000000000000A7
:105A00000000000000000000000000000000000096
:105A100000000000B6CB0020202011241124FD241A
:105A200001FC48004BFE484449FE495411541D54A2
:105A3000E1544104010C00000000000000000000DF
:105A40000000000000000000000000000000000056
:105A50000000000000000000000000000000000046
:105A60000000000000000000000000000000000036
:105A70000000000000000000000000000000000026
:105A80000000000000000000000000000000000016
:105A9000000000000000BFDA000000083FFC200802
:105AA00020082008200820082008200820082008B6
:105AB0003FF8200800000000000000000000000087
:105AC00000000000000000000000000000000000D6
:105AD00000000000000000000000000000000000C6
